:020000040000FA
:20000000005000207D0F0000750F00005D0F0000790F0000790F0000790F0000000000005C
:20002000000000000000000000000000790F0000790F000000000000790F0000790F0000A0
:20004000FDA20000790F000071630100790F0000FD980000E99D0000790F0000790F0000F1
:20006000790F000099630100790F0000790F0000790F0000790F0000790F0000790F0000CB
:20008000790F0000790F0000790F0000790F0000790F0000790F0000790F0000790F000020
:2000A000790F0000790F0000790F0000790F0000790F0000790F0000790F0000790F000000
:2000C000790F0000D9B20000294B1B689B0702D44FF000407047F0B5002083B0452109F011
:2000E00069FA0DF106010120022215F0F3FD38B901A8022115F018FE4FF0004003B0F0BDA7
:200100000DF106010020022215F0E4FD0028EFD0BDF806305BBA9CB2200BADF8043017F070
:2001200057F916F0F9FC0646C4F30B000F4617F05FF90DA3D3E9002304460D463046394691
:2001400017F0BCF902460B462046294617F0B6F917F04EFC074917F0A9FD17F0F7FE03B0C2
:20016000F0BD00BFAFF300807B14AE47E17A843F6C1D00200000C84208B51F4B1B68032BC4
:2001800033D1431E012B30D81C4A1D4B012812881B8812D0184617F01BF90022194B17F0AA
:2001A0008DF90022184B17F089F917F021FC174917F07CFD17F0CAFE08BD104617F008F9B5
:2001C0000022104B17F07AF909A3D3E9002317F075F900220E4B16F0BDFF17F009FC0B498B
:2001E00017F064FD17F0B2FE08BD4FF0004008BD0000000000A06440901D00207C390020F1
:200200007E3900200000F03E000059400000C84200004440000000002DE9F041664B1B6837
:200220004BB1664B002210F0380604461A609A8006D142073ED14FF000463046BDE8F08193
:2002400009F0CCFA5E4D286007E009F0C7FA2A686FF009039B1AC34203D508F0FDF8002867
:20026000F3D0584B1B78D907E5D5544D0120682109F0A0F929463B20062215F02BFD0646A3
:200280000020014609F096F9002E7ED02F786E78A878E9782A796B79202C6F702E70E8703D
:2002A000A9706A712B715AD0102C65D0082C66D00026C2E709F092FA414D286007E009F05F
:2002C0008DFA2A686FF009039B1AC34203D508F0C3F80028F3D03B4B1B78DB07ABD5374D6B
:2002E0000120682109F066F929464320062215F0F1FC074600284DD095F8008095F801C023
:2003000095F802E0EF782A796B790020014685F8018085F800C085F803E0AF706A712B71E8
:2003200009F048F9042C06D0022C2BD0012C84D1B5F9040001E0B5F9000017F059F81CA37A
:20034000D3E9002317F0E4F917F052FB1E4917F0ADFC17F0FBFD06463046BDE8F081B5F9EA
:20036000000007F0A3FF184917F0A0FC17F0EEFD06463046BDE8F081B5F90200F1E7B5F9E0
:200380000400EEE7B5F90200D7E72846062115F0CBFC50E72846062115F0C6FC3846394625
:2003A00009F008F94FF0004647E700BFAFF300800000000000606040C01D0020981D0020DD
:2003C000A43B0020A13900200000C842000000002DE9F04F144623F00047024657EA040084
:2003E0000E468FB01D469C46214634D06E4B26F0004A9A459346B14626DC24D09F4223DC1C
:20040000694B9F4200F08F80B9F1000FC0F28F804FF0000879BB644B9F4200F0A580634B00
:200420009F4267D0BCF1804F00F0E283604B9C4521D1B9F1000F1EDB104631460FB0BDE872
:20044000F04F16F0E9BC62B10AF1404000F5801050EA0B0007D10346544918460FB0BDE8DA
:20046000F08F5745CCDD53480FB0BDE8F04F16F0D1BD4FF0000810463146CDF808C00092B3
:2004800016F090FD009ADDF808C0BBF1000F20D04FEAD97909F1FF3958EA09037AD0464B01
:2004A0009F4240F38F8003F104739F4240F31084424B9A4540F39283BCF1000F40F392834E
:2004C00037A1D1E900010B46024616F0F7FF0346C3E7BAF1000F04D0344B29F0404E9E456A
:2004E000D6D1BCF1000FC0F2B683B9F1000F08DB0346B2E7BCF1000FC0F25284134631461C
:20050000ABE70AF1404A0AF5801A58EA0A0340F05E8402460B4616F01DFE0B46024617F070
:20052000F7F8034699E700293FF46EAF8CE7244B9F422CDCA3F154739F427FF769AF40F2C3
:2005400013403B15834240F34B84C3F58663033321FA03F000FA03F38B427FF459AF00F024
:200560000100C0F1020855E70AF1404303F5801353EA0B0300F03983104B9A4540F364832F
:20058000BCF1000FC0F22E832346294665E74FF002083FE7104631463346BCE7AFF300809E
:2005A0009C7500883CE4377E0000F07F0000F03F0000E03F2C9101000000E041FFFFEF3F05
:2005C000FFFF3F43BAF5801F4FF0000205DACA4B16F074FF8A466FF034024FEA2A53C74E6F
:2005E000CAF3130AA3F2FF334AF07F571344B2450C9347F4401740F3D083C14B9A4540F327
:2006000007840026B4460C9BA7F5801701330C933946BC4B4FEACC0C6344D3E900AB524645
:200620005B46CDF834C0CDE9060116F093FD52465B46CDE90801DDE9060116F08DFD024670
:200640000B460020B04917F063F802460B46DDE90801CDE90A2316F031FF02460B46CDE9FE
:200660000223CDE904237B1043F0005303F5002399190020002306460F460293DDE9022336
:200680001046194632463B46CDE9000116F016FF02460B46DDE9080116F05CFD5246CDE9C5
:2006A00008015B463046394616F054FD02460B46DDE9060116F04EFD02460B46DDE900012D
:2006C00016F0FCFE02460B46DDE9080116F042FDDDE90A2316F0F2FEDDE90423CDE90601DA
:2006E0001046194616F0EAFE02460B4606460F4616F0E4FE6EA3D3E9002382468B46304636
:20070000394616F0DBFE6CA3D3E9002316F024FD32463B4616F0D2FE69A3D3E9002316F0A6
:200720001BFD32463B4616F0C9FE67A3D3E9002316F012FD32463B4616F0C0FE64A3D3E95D
:20074000002316F009FD32463B4616F0B7FE62A3D3E9002316F000FD02460B465046594601
:2007600016F0ACFEDDE9042306460F46DDE9000116F0F2FCDDE9062316F0A0FE32463B46F4
:2007800016F0EAFCDDE9006782468B4632463B463046394616F092FE00225C4BCDE908019B
:2007A00016F0DAFC52465B4616F0D6FC02980F460646DDE9000132463B4616F07FFE324656
:2007C0003B46CDE90001DDE9060116F077FE0022CDE906014D4B3046394616F0BBFCDDE9AA
:2007E000082316F0B7FC02460B465046594616F0B1FCDDE9042316F061FE02460B46DDE9E3
:20080000060116F0A9FC82468B46DDE9000152465B4616F0A1FC32A3D3E9002302980F4647
:20082000064616F04BFE30A3D3E90023CDE904013046394616F042FEDDE90023CDE90601CF
:200840003046394616F086FC02460B465046594616F080FC26A3D3E9002316F02FFE0246A8
:200860000B46DDE9060116F077FCDDF834C0284BCDF818C06344D3E9002316F06DFCCDE95D
:2008800000010C9816F0B4FD06460F46DDE90401204BDDF818C09C44DDE90023DCE900AB3F
:2008A00016F05AFC52465B4636E000BFAFF30080EF4E454A287ECA3F65DBC9934A86CD3FB9
:2008C00001411DA96074D13F4D268F515555D53FFFAB6FDBB66DDB3F033333333333E33FC6
:2008E000000000E009C7EE3FF5015B14E02F3EBEFD033ADC09C7EE3F000040438E980300EC
:2009000079B60B00908B01000000F03F00000840808B0100708B0100CDE906AB16F01CFC7D
:2009200032463B4616F018FC029832463B4682468B4616F00FFCDDE9062316F00BFCDDE9A5
:20094000042316F007FC02460B46DDE9000116F001FCCDE9020108F1FF3858EA09030CBF02
:20096000D54BD64B0022CDE904230023CDE900450093DDE90067204632463B46294616F085
:20098000E9FB52465B4616F099FDDDE90223804689462046294616F091FD02460B46404696
:2009A000494616F0D9FB04460D465246304639465B46CDE9024516F081FD06460F4620467B
:2009C0003B462946324616F0C7FBBD4B824699428946884640F3138101F13F4303F5E00389
:2009E000034340F0E581A0A3D3E90023DDE9020116F0B2FB324604460D463B4650464946C2
:200A000016F0A8FB02460B462046294616F0E6FF002840F0CD814C462015A0F2FE304FF464
:200A2000801101414144C1F30A50A64CA0F2FF35C1F3130BC0F5826003302C414BF4801BB5
:200A400021EA040300224BFA00FB3946304616F081FB06460F46DDE902018BEAE87B0BEB73
:200A6000D87B32463B464FEA0B5A16F075FB80A3D3E90023002420460D4616F01FFD32469D
:200A8000804689463B462046294616F063FB02460B46DDE9020116F05DFB77A3D3E900234E
:200AA00016F00CFD76A3D3E9002306460F462046294616F003FD02460B463046394616F01F
:200AC0004BFB06460F4632463B464046494616F043FB42464B4604460D4616F03BFB0246A3
:200AE0000B463046394616F035FB2246804689462B462046294616F0E1FC63A3D3E900236F
:200B000006460F4616F0DAFC61A3D3E9002316F021FB32463B4616F0D1FC5FA3D3E90023A6
:200B200016F01AFB32463B4616F0C8FC5CA3D3E9002316F00FFB32463B4616F0BFFC5AA332
:200B4000D3E9002316F008FB32463B4616F0B6FC02460B462046294616F0FCFA06460F46F1
:200B600032463B462046294616F0A8FC0022CDE900014FF080433046394616F0EBFA0246FA
:200B80000B46DDE9000116F0C3FD424606460F464B462046294616F091FC42464B4616F036
:200BA000DBFA02460B463046394616F0D3FA22462B4616F0CFFA02460B4600203F4916F010
:200BC000C9FA8A44BAF5801F0246C0F227815346DDE9040116F072FC03463EE4BCF1000F95
:200BE000FFF66EAC0023194637E40B46334934E433461046314616F061FC03462DE4324BE4
:200C000021F000449C4240F3FA80304B0B4403430CD132463B4616F09DFA02460B46DDE912
:200C2000020116F0C7FE00283FF4F6AE20A3D3E90023DDE9040116F041FC1DA3D3E9002398
:200C400016F03CFC034608E4BCF1000FCADA234605F1004101E402460B460020174916F01D
:200C600057FD42E4AFF30080FE822B654715973C00000000432EE63FEF39FAFE422EE63F4E
:200C8000396CA80C615C20BED0A4BE726937663EF16BD2C541BDBB3E2CDE25AF6A56113FA0
:200CA00093BDBE166CC1663F3E5555555555C53F59F3F8C21F6EA5010000F0BF0000F03F3C
:200CC000FFFF8F40FFFF0F00FFCB904000346F3F634B9A4582DD634B9A453FF7EDAB002255
:200CE000604B16F037FA54A3D3E9002306460F4616F0E4FB52A3D3E90023CDE900013046B5
:200D0000394616F0DBFB3246CDE902013B463046394616F0D3FB002282468B46304639464D
:200D2000514B16F0CBFB02460B4647A1D1E9000116F010FA32463B4616F0C0FB02460B46AC
:200D400000204A4916F006FA02460B465046594616F0B4FB3EA3D3E9002316F0AFFB02469F
:200D60000B46DDE9020116F0F5F906460F46DDE9000132463B4616F0EFF9DDE9002300200D
:200D800082468B4616F0E6F902460B463046394616F0E0F9CDE90201DDE50026B44637E4B2
:200DA000334600202F4916F0B3FC0346FFF755BB29A3D3E90023DDE9040116F07FFB26A35F
:200DC000D3E9002316F07AFB0346FFF746BBB8F1010F03467FF441AB01F10041FFF73DBBF7
:200DE00000297FF446ABC3F58263033347FA03F000FA03F3BB4217D08846FFF710BB1B4B96
:200E00009C423FF709AEDDE90023924693462EE64FF480264FF0010CFFF7FABB5A4600F0E9
:200E200027F802460B46D3E600F00100C0F10208FFF7F5BAAFF30080000000604715F73FDC
:200E400044DF5DF80BAE543E555555555555D53FFE822B654715F73F9C7500883CE4377EAD
:200E6000FEFFEF3F0000F03F0000D03F0000E03FF8B5C1F30A5604460D460B46174616BB0D
:200E800021F00043034332D00022314B16F016FB304A044697420D460B4637DB40F2FE720C
:200EA000C1F30A56363E3E44964215DD24A1D1E9000122462B4616F041F921A3D3E9002322
:200EC00016F0FCFAF8BD40F2FF72964224D040F2FE723E449642E9DC002E09DD23F0FF43C8
:200EE00023F4E00343EA065520462946F8BDF8BD16F1350F15DA4CF250339F42D6DC12A1F0
:200F0000D1E9000122462B4616F018F90EA3D3E9002316F0D3FAF8BD02460B4616F01CF95A
:200F2000F8BD23F0FF4323F4E003363643EA0655204629460022084B16F0C0FAF8BD00BF3B
:200F40009C7500883CE4377E59F3F8C21F6EA50100005043B03CFFFF0000903C044B1A68D0
:200F6000B2F5806F03D01B689B0500D4FEE7704728ED00E0FEE700BFFEE700BF08B512F079
:200F80001DFE104A104B9A420DD2D0430F4918440B4620F003000430084453F8041B8342EC
:200FA00042F8041BF9D10A480A494FF000028842B8BF40F8042BFADB06F040FCFFF7CEFFB6
:200FC00008BD00BF000000205E0A002091A20100600A0020D0450020022006F00DBE00BF50
:200FE0002DE9F0410AF088F8344CC0F30A00637F00F52065002B37D1314C637F3BB92946A2
:20100000BDE8F0412F48304A00230AF083BF2F4B02205B689847B0F1004F0746EFD0C0EBC5
:201020004013002600EB83035B1104F11F000C21274AE67784F8206084F8216084F8226054
:2010400084F8236084F8246084F8256084F8266084F8276084F8286084F8296084F82A607C
:2010600067600AF0A5F9CAE7184B01205B689847B0F1004F0746BFD0002603460C2104F1DD
:201080001F00134AE67784F8206084F8216084F8226084F8236084F8246084F8256084F804
:2010A000266084F8276084F8286084F8296084F82A6067600AF07CF99EE700BFB806002040
:2010C000BC040020303B0020E10F0000F09D0100B88B0100031E10B40EDB0A4AD81782FB55
:2010E00003426424C0EB621204FB123308465DF8044B05490AF098B9044A5B42128821F897
:20110000012BEAE71F85EB51C08B0100BC8B01002DE9F04107461B480E4690460BF0A0FBA7
:201120000446A0B16569284617F072FBB04208D1384617F06DFB39460246284617F0C0FBB5
:2011400040B120460BF0F2FB04460028EAD10020BDE8F081404617F0F7F920B101280DD198
:201160006077BDE8F081084B607718689B88C4F81F00A4F823300120BDE8F0814FF0FF3046
:20118000BDE8F081AC0A0020C88B0100094B82B05B7F13B9084B5B7F33B1084B81209B68DB
:2011A0000121019302B018470548064A802102B00AF0B0BEDC050020340600202C9D0100EB
:2011C000103B00208D110000074B5B7F23B907488021074A0AF09EBE064B82B09B68812040
:2011E0000121019302B0184764040020EC3A0020C91100005C9D0100094B82B05B7F13B95A
:20120000084B5B7F33B1084B81209B680121019302B018470548064A802102B00AF07ABEDD
:2012200090040020840500206C9D0100743B0020F9110000094B82B05B7F13B9084B5B7F15
:2012400033B1084B81209B680121019302B018470548064A802102B00AF05CBE8C06002036
:20126000B00500203C9D0100CC3A002035120000144B82B05B7F13B9134B5B7FDBB13823FC
:20128000124A527F12B9124A527F42B143F007031946104A81209368019302B018470E4AA7
:2012A000527F002AF2D1002BF2D10C480C4A802102B00AF02FBE0B4B5B7F002B14BF382315
:2012C0000023DDE70806002050050020E804002024050020849D010060060020543B0020D8
:2012E000711200002804002008B50020FFF778FE0020FFF74BFF0020FFF766FF0020FFF7E5
:201300007BFF0020FFF796FFBDE808400020FFF7AFBF00BF10B504460EF014FD10220146E1
:20132000204617F01BF918B90CF074FC014B186010BD00BFA00A002038B507F0E7FA90B3CD
:2013400000204FF4807107F08FFB28B319491A4C00234FF48072194884E80E000BF080FA6D
:201360000125034668B15A7F18462AB11A7FA36805FA02F21343A3600BF0D8FA03460028A5
:20138000F1D100204FF480710B4A07F021FB30B90B4808F055FB02E00A4808F051FBBDE82E
:2013A000384007F0E3BA084808F04AFBBDE8384007F0DCBA025026CCCC390020AC0A0020AB
:2013C000088C0100F48B0100D08B01000D2901D00020704710B514460A460A4917F046FAB5
:2013E00008B1002010BD204617F0AEF8064B421F9A4204D8054BC001D860012010BD4FF054
:20140000FF3010BD1C8C01007B510100CC3900202DE9F0474FF0000A8146884657465546D2
:20142000561C0AE0BAF1000F26DB31D00AF1010A0237102F06F102061BD016F8014C337826
:2014400003EB0424A4B2002CECD0BAF1000F13DD4FF0FF3A09EB0500C5EB08012346124A9F
:2014600009F0A6FF02372844102FC5B206F10206E3D12846BDE8F087002FEBD009EB050053
:20148000C5EB0801094A09F093FF2844C5B2E1E709EB0500C5EB0801054A09F089FF28441C
:2014A000C5B24FF0010AC3E7348C0100308C01002C8C010001480BF0D3B900BFAC0A002025
:2014C00010B5032006F08EFB0B480BF0C9F9012420B144770BF02AFA0028FAD1074B084830
:2014E000197800220AF0C0FFFFF726FFBDE81040032006F081BB00BFAC0A0020503B0020DB
:201500000C0700202DE9F04F0688C5B004460F469046EEB140F2DD339E4213D1882F00F07F
:2015200074826D4B1B78BB4200F024816B4B1B78BB4200F08C8240F2DD330120238045B099
:20154000BDE8F08F00230380032045B0BDE8F08F634808F075FA634863490BF083F96148FC
:2015600062490BF07FF9624B01219B68812098475C4860490BF076F95A485F490BF072F994
:2015800058485E490BF06EF956485D490BF06AF954485C490BF066F952485B490BF062F9D1
:2015A00050485A490BF05EF94E4859490BF05AF94C4858490BF056F94A4857490BF052F921
:2015C000484856490BF04EF9464855490BF04AF9444854490BF046F9534B01219B68812069
:2015E00098470AF09FFE514BDFF8809118700AF099FE89F800000AF095FE4D4B3146187033
:201600004C480AF03DFF4C4831460AF039FF4B4D4B4831460AF034FF4FF0FF324FF470636E
:20162000AA60EB6007F072F978B3304604AA4FF4807107F0A3F9064607F098F9002E00F0EB
:20164000E081404B049A9A4200F0048225480BF007F90346F0B1DFF818A1012605E05E77EB
:2016600018460BF063F90346A0B11A7FA96806FA02F20A40F3D1DAF80000BAF804105A7706
:20168000C3F81F00A3F82310EAE72F4808F0D8F907F06CF9002099F8001002460AF0C4FE70
:2016A000FFF722FE294803F019FD294803F016FD284803F013FD284B4FF0006227482849BC
:2016C0001A600EF039FD274810210AF039FD264810210AF035FD21E7CC450020CA45002059
:2016E000388C0100AC0A0020B8060020BC040020F09D0100DC05002034060020B0050020D3
:201700008C060020640400209004002084050020080600205005002028040020E804002037
:201720002405002060060020CC9D0100C8390020503B002088070020E4060020CC390020C6
:201740000C070020025026CC508C0100140500207C0500201C050020A00A0020A40A002082
:2017600015130000D00A0020900A00200C3B0020C88B0100BC4B984500F0BC81BB4B1B7828
:20178000BB4200F06481BA4DA84500F0C181B94B984500F0D881B84DA84500F01B82B74DA4
:2017A000A84500F02E82B64DA8457FF4C4AE09F0A3FCDFF8D8A2C0F30A009AF81D3000F54D
:2017C00020620392002B40F00984DFF8C88298F81D30002B40F01584AA4F7B7F002B40F0CA
:2017E0000784A94E737F002B40F0F083DFF8B4B29BF81D30002B40F0E083DFF8B09299F822
:201800001D30002B40F0D083AB680021812098479AF81D109D4B21B39968586881420CBF4F
:2018200000210121997718BF9860002398498AF81F308AF820308AF821308AF822308AF8B6
:2018400023308AF824308AF825308AF826308AF827308AF828308AF829308AF82A30FFF750
:2018600039FC98F81D108B4B21B39968586881420CBF00210121997718BF98600023864969
:2018800088F81F3088F8203088F8213088F8223088F8233088F8243088F8253088F82630B4
:2018A00088F8273088F8283088F8293088F82A30FFF710FC797F734B19B3996858688142BE
:2018C0000CBF00210121997718BF986000237349FB7787F8203087F8213087F8223087F8DB
:2018E000233087F8243087F8253087F8263087F8273087F8283087F8293087F82A30FFF7C5
:20190000E9FB717F604B19B39968586881420CBF00210121997718BF986000236049F377D5
:2019200086F8203086F8213086F8223086F8233086F8243086F8253086F8263086F827301B
:2019400086F8283086F8293086F82A30FFF7C2FB9BF81D10534B21B39968586881420CBFCE
:2019600000210121997718BF98604F4900238BF81F308BF820308BF821308BF822308BF8B9
:2019800023308BF824308BF825308BF826308BF827308BF828308BF829308BF82A30FFF708
:2019A00099FB99F81D10414B21B39968586881420CBF00210121997718BF986000233C495C
:2019C00089F81F3089F8203089F8213089F8223089F8233089F8243089F8253089F826306B
:2019E00089F8273089F8283089F8293089F82A30FFF770FB03992F482F4A00230AF08AFAF3
:201A000099E52E4808F01CF844E62D480AF0B6FB00285BD12B480AF0B1FB00283FF481AD86
:201A200001200DF0BBFC002800F0CC8101200DF0B5FC30B10EF086F98021002214230EF047
:201A400039FB214B1F48D9680AF07AFB69E5FFF773FC70E5059AB2F5807F7FF4F7AD04A9BE
:201A6000284616F0ADFDF1E5A49D0100CA4500202C9D01005C9D01006C9D01003C9D010059
:201A8000849D01006006002008060020E80400200705002024050020430500207F060020E2
:201AA00027060020500500206F0500202804002047040020543B002071120000748C0100E6
:201AC000900A0020D00A0020CC39002001200DF065FC054600289DD1022006F083F82B46C9
:201AE000BB480821BB4A0AF015FABB4810210AF027FB8FE7D8F8043001209847B0F5207F9E
:201B000040F31A81B54807F09BFFFFF7D9FC12E509F0F2FAB24EC0F30A00737F00F5206797
:201B2000002B40F0CB81AF4E737F002B40F00E81AB680021812098473946AB48AB4A0023E7
:201B40000AF0E8F9F7E409F0D7FAD8F80430C0F30A0700209847B0F1004F07F5206732D0C9
:201B6000A34DA449AB6881FB002198420CBF00230123AB774FEAE0734FF06402C3EB611377
:201B8000686018BFA86002FB1300002600900C2199489A4AEE7785F8206085F8216085F809
:201BA000226085F8236085F8246085F8256085F8266085F8276085F8286085F8296085F811
:201BC0002A6009F0F5FB39468D488E4A00230AF0A1F9B0E409F090FA8B4EC0F30A00737F10
:201BE00000F52068002B40F0A581884E737F002B40F02A8141468648864A00230AF08AF954
:201C000099E409F079FA844FC0F30A007B7F00F52068824E1BB9737F002B00F08180D5F855
:201C200004A00320D047B0F1004FDFF8189200F0F2817B7FDFF8E091002B39D00220D04743
:201C40007749D9F8083081FB002198420CBF0023012389F81E304FEAE0734FF47A72C3EBFA
:201C6000A113C9F8040018BFC9F8080002FB13004FF0000E00900C216A486B4A87F81FE04C
:201C800087F820E087F821E087F822E087F823E087F824E087F825E087F826E087F827E030
:201CA00087F828E087F829E087F82AE009F080FB737F002B34D06B6801209847B268574B68
:201CC000904257490CBF002201229A7781FB002118BF9860C3174FF47A72C3EBA1137060CA
:201CE00002FB1300002700900C2150484E4AF77786F8207086F8217086F8227086F8237014
:201D000086F8247086F8257086F8267086F8277086F8287086F8297086F82A7009F048FBF4
:201D2000AB6800218120984741464148414A00230AF0F0F8FFF7FFBBFFF7D6FA3E4B002030
:201D4000197802460AF070FBFFF7F5BB6B6801209847B0F1004F3FF4EBAE2649B36881FB0A
:201D6000002198420CBF00230123B3774FEAE073C3EB61134FF06402706018BFB06002FB25
:201D800013004FF0000E00900C211C4A86F81FE086F820E086F821E086F822E086F823E045
:201DA00086F824E086F825E086F826E086F827E086F828E086F829E086F82AE01F4809F020
:201DC000F7FAB5E61E4810210AF0BAF9FFF7A9BBB00A0020D90F0000900A00208C8C010044
:201DE000DC05002034060020103B00208D110000640400201F85EB5183040020C08B010024
:201E0000EC3A0020C91100008405002090040020743B0020F91100008C060020B0050020E5
:201E2000D34D6210AB060020A08C0100CF050020CC3A002035120000C83900205306002017
:201E4000D00A00203C9D01006B6802209847B0F1004F3FF4CFAE7649B36881FB00219842E9
:201E60000CBF00230123B3774FEAE073C3EB61134FF06402706018BFB06002FB13000025E7
:201E800000900C216B4AF57786F8205086F8215086F8225086F8235086F8245086F82550C1
:201EA00086F8265086F8275086F8285086F8295086F82A50604809F07BFA9BE66B680220C8
:201EC0009847B0F1004F3FF42EAE5949B36881FB002198420CBF00230123B3774FEAE07328
:201EE000C3EB61134FF06402706018BFB06002FB13004FF0000E00900C214E4A86F81FE035
:201F000086F820E086F821E086F822E086F823E086F824E086F825E086F826E086F827E0B5
:201F200086F828E086F829E086F82AE0434809F03FFAF8E56B6801209847B0F1004F3FF47C
:201F400054AE3B49B36881FB002198420CBF00230123B3774FEAE073C3EB61134FF06402DA
:201F6000706018BFB06002FB1300002700900C21304AF77786F8207086F8217086F82270A1
:201F800086F8237086F8247086F8257086F8267086F8277086F8287086F8297086F82A709D
:201FA000274809F005FA20E66B6808209847B0F1004F18BFC9F8040026E46B681020984762
:201FC000B0F1004F18BFCBF8040016E46B6820209847B0F1004F18BF706007E46B6804200E
:201FE0009847B0F1004F18BFCAF80400FFF7EDBB6B6801209847B0F1004F18BF7860FFF76F
:20200000F0BB6B6802209847B0F1004F18BFC8F80400FFF7E1BBD9F808300021812098477A
:2020200008484146084A002309F074FF01E600BF1F85EB51C08B0100AF040020FB05002023
:20204000A3050020CC3A002035120000082901D00020704708B50A46044916F007FC08B156
:20206000002008BDFFF72CFA012008BDA88C01002DE9F04F04888BB00546B4B1B72C0ED1B6
:2020800068480E460AF07AF850BB674B1B78B3421CD0B7232B8001200BB0BDE8F08F0023F7
:2020A000038003200BB0BDE8F08F604807F0C8FC5F4B5C481C605C609C60DC604FF4F051F6
:2020C0000AF03EF8B7232B800120E5E7594B1B789B07DED5584B594A1B881268D054D8E78C
:2020E00001200DF05BF9044600286AD00FF03EFD002866D02346064653F8020F4C4C5968C0
:202100009A68DB684E4F0FC456F8080FD7F800807168A4F1080303C3B8F1000F76D0404693
:20212000A4F11001102216F019FA002861D1454C68462368444901331A46236009F074F980
:2021400082460FF013FD50B3036AD3F8904034B34FF0000B5E46DFF8FC90DFF8FC80EA44E4
:202160000AE0BBF1000F32DB38D00BF1010B0236102E04F102041CD02279637903EB0222B7
:2021800092B2002AEDD0BBF1000FC8BF4FF0FF3B1DDD50462D4909F047F98244E7E72C4B0F
:2021A0000DEB0A02186899889B794DF80A0091809371684616F02CFB6946024638680EF092
:2021C00099FF18484FF4F05109F0BAFF61E7002EDFD0B9F800302AF8013BDAE7B8F80020DC
:2021E00098F80230AAF800204FF0010B0AF8023FBDE70022A4F11000A8F810204BF60B0145
:202200000EF0B2FA38600028DBD090E7A4F1100042464BF60B010EF0A7FA38600028D0D0B9
:2022200085E700BFF80A0020CE450020C48E0100E00A0020403F0020A83B00204C3F002074
:20224000F00A0020F40A0020D88E0100E08E0100E88E0100308C01002C8C0100022005F06C
:20226000CBBC00BF2DE9F84F40F25B78264C00212068F02216F07EFA2268244B244D03CBD3
:20228000106024681F889E782868224B95F806A0516017819672B5F804C0B3F804B02062B2
:2022A000997918681C4DDFF878E01C4E84F826A04FF02B094FF4206AC4F8800084F88610BA
:2022C000A4F824C00FCDA4F884B0C4F8A000C4F8A410C4F8A82003CDC4F8AC30C4F8B000AE
:2022E000C4F8B410BEE8030084F8E09020646164A4F8EC8007CEC4F8E8A020666166A2660A
:202300000120BDE8F88F00BF943B00200C8F0100188F0100208F0100288F0100508F010036
:20232000448F0100F0B5244C244A236850799179177856789578D27989B003F1200E049044
:2023400005910692CDF800E00197029603951C4840211C4A09F02CF83F281DD823681A4851
:20236000E0334021194A09F023F83F281ED82368174880334021174A09F01AF83F2818D854
:2023800000231946144C154A15482380137009B0BDE8F04009F0D4BE01461248402208F065
:2023A000E1FF0E4BFE221A7009B0F0BD01460E48F4E701460D48F1E7943B00207445002020
:2023C000BC0D0020608F0100340B0020D88F0100740B002010980100743900208E39002061
:2023E000080B0020848F0100A08F0100BC8F0100012938B525D014461AD3042917D1324A36
:2024000094F84E30146013B1002384F84E30201D16F0FEF980B21728A56CB4F8503001D1A3
:20242000012B1AD0BDE83840284807F009BB38BD27484FF420710AF07BF8264B03221A7079
:2024400038BD244B1A78062A06D005221A702248BDE838400AF034B838BD04F117001F49F9
:20246000042216F02DFA00BB0E3420461C49042216F026FA78B120461A49042216F020FABD
:202480000028E9D12B78312B18D0302BE4D1BDE8384006F093BB2B78312B0AD0302BDBD122
:2024A000BDE83840012005F0A7BB0F4807F0C8FADAE70120BDE8384005F094BB4FF47A7007
:2024C000BDE8384006F028BBB80D0020F08F01002C0B00208E3900200C0700201890010087
:2024E000349001003C900100209001002DE9F04F048891B0054634B340F2ED339C421CD128
:20250000A54C0E4623788B4242D0A44B1B78B3424AD0882E27D0822E28D0A14B1B78B342A2
:2025200024D02378B34278D09E4B1B78B34278D040F2ED3301202B8002E00023038003204D
:2025400011B0BDE8F08F984807F07AFA974B984A1A60FFF787FE012800F0FC8002202C802F
:2025600011B0BDE8F08F934B9A42D6D1924C2378032B5ED02CD9052B1ED05CD3062B00F0CD
:20258000A481FE2B40F0AB818C4807F059FACBE78B4B9A42B9D1884B1978FF29B5D18948A2
:2025A000012101701970B0E782484FF42061079209F0C6FD079AACE7824F3B78042B40F26C
:2025C0009981FF2323707B48402109F0B9FDABE7012B00F04C8100F269817B487B4F08F07D
:2025E000C1FEDFF8C88120230093794A794B3846794904F0D7FFD8F8003093F8602093F8FF
:202600004030002A40F01881002B00F08781734807F016FAFF232370D5E7694B9A4283D11D
:20262000A4E7FFF71FFE63484FF4206109F088FD7EE7042323706A4809F08EFF10B1614B4B
:2026400000221A70614890F86A70002FBBD190F86030092BB7D190F87432002BB3D02378BD
:20266000554C032B00F05E81022005F0BBFA80215C4A3B465C4809F04DFC0DF124087B207D
:2026800008F040FD4346DFF8A8C1584ABCF800E0574C106851684FF07B0A9268DFF8949178
:2026A00024F801AB0EF1010E07C3C9F800400C970D970E970F97ACF800E0FEF7FBFE4D4CDC
:2026C00003462060002800F0888140F2FF17D9F800005A7FD2B1596803F11F0EB1F1004FC8
:2026E000454A13D0D3F80CC09B6939460093CDF804E0634608F05CFE021E1CDB97421ADD30
:20270000D9F80000BF1A1044C9F8000023681B682360002BDDD1D9F80030013F013B374A92
:2027200018463946C9F8003008F042FE021E02DB974200F3FF803946314808F013FE1B4BE4
:202740001C481B68D3F8E81009F0FAFC2D4807F077F9E9E62C4802F0C1FC2C4802F0BEFCF2
:202760002B4802F0BBFC2B4802F0B8FC2A4802F0B5FC2A4802F0B2FC294802F0AFFC29487E
:2027800002F0ACFC284802F0A9FC284802F0A6FCFFF7C8FDCCE600BFCC450020CA45002008
:2027A000C8390020503B002044900100943B0020DC390020080B00208E3900209491010014
:2027C000CC9D01008F39002060900100200E0020BC0D0020F12300000C070020B0900100F7
:2027E0002C0B00205D220000FC0D0020F08E010080150020180B0020309101006C910100A3
:202800004091010088910100F4060020FC06002034070020040700203C0700204C07002034
:202820002C0700201C0700204407002024070020743900201C0E0020002B3FF4E8AE684891
:2028400008F090FDD8F80020384602F14001603204F0A4FF634ADFF890E10023012013607C
:2028600053609360D3607B758EF80000207001200CF094FDA8B15C4B5C48197808F072FD2F
:202880005B4B5C481A68D2F8E83002F1A00103EB43039BB2B2F8EC2004F0C6FE38B3FE23FB
:2028A00023705548102109F04BFC3DE6022005F099F952481021524A002309F02BFB4A4B6D
:2028C0005048197808F04EFD7DE64A4B93F8603013F0FB0F7FF477AEFFF724FD24E6022091
:2028E00005F080F92178484808F03CFD1CE602232370D6E73F4804F0CBFE3B783E480133E8
:20290000DBB2022B9ABF4FF4807199404FF400613B7009F015FC0123237005E63B4807F022
:202920008FF897E73B463946394A04F0C3FE0423237004E7374B384F38481F6015F068FF41
:2029400081460C2310210DF1300A4A460091029332490493CDF80480314BCDF80C803846BC
:20296000CDF814A002F05CFF384615F051FF01462C4808F0F7FC4FF0000B05E017F8011BBE
:2029800008F0F0FC0BF1010B244C204615F040FF83452548F2D3204600214FF4007204F106
:2029A000100715F0E7FE9AE80F0084E80F0098E8070087E807004A4604F11C00164915F008
:2029C000FFFD09F11C0300210093019123460291164A084804F0A2FEB1E640F2FF179AE6FD
:2029E000E09001001C0B00208F390020FC900100943B0020200E0020080B0020FC0D002011
:202A00005D2200001C910100A891010068900100340B0020B40B0020B80B00208015002080
:202A2000FC8E010070910100348C0100740B002008B5054B062205481A7009F0BBFBBDE849
:202A40000840034804F024BE8E390020080B0020200E0020062901D00020704770B515464E
:202A60000A4611491C4615F001FF58B9202C0DDD4FF0FF340D4B1B78062B05D0FFF7D8FFCE
:202A8000204670BD002070BD204670BD084E01462022306815F06EFE22463068294615F067
:202AA0008FFD0124E6E700BFC49101008E390020943B0020072901D00020704770B5144656
:202AC0000A4612491D4615F0D1FE58B9202D0DDD4FF0FF340E4B1B78062B05D0FFF7A8FFCB
:202AE000204670BD002070BD204670BD094B20221E6801461644304615F03CFE2146304614
:202B00002A4615F05DFD0124E4E700BFCC9101008E390020943B00200D2901D00020704725
:202B200070B514460A4612491D4615F09FFE58B9202D0DDD4FF0FF340E4B1B78062B05D0BA
:202B4000FFF776FF204670BD002070BD204670BD094B01461E6820228036304615F00AFEFB
:202B6000214630462A4615F02BFD0124E4E700BFD49101008E390020943B0020082901D0EE
:202B80000020704738B515460A4617491C4615F06DFE58B9082C0DDD4FF0FF34134B1B7802
:202BA000062B05D0FFF744FF204638BD002038BD204638BD0E4B22461B68294683F8E000FD
:202BC00083F8E10083F8E20083F8E30083F8E40083F8E50083F8E60083F8E70003F1E00088
:202BE00015F0EEFC0124D9E7E49101008E390020943B0020082901D00020704770B514465D
:202C00000A4612491D4615F031FE58B9202D0DDD4FF0FF340E4B1B78062B05D0FFF708FFC9
:202C2000204670BD002070BD204670BD094B01461E6820224036304615F09CFD2146304657
:202C40002A4615F0BDFC0124E4E700BFF09101008E390020943B0020082901D00020704766
:202C600070B514460A4612491D4615F0FFFD58B9202D0DDD4FF0FF340E4B1B78062B05D01A
:202C8000FFF7D6FE204670BD002070BD204670BD094B01461E6820226036304615F06AFD1C
:202CA000214630462A4615F08BFC0124E4E700BFFC9101008E390020943B0020092901D025
:202CC0000020704708B50A46074915F0CFFD38B9064B1B78062B05D0FFF7AAFE012008BD90
:202CE000002008BD012008BD089201008E390020092901D000207047F0B5154685B00A4628
:202D000014491E4615F0B2FD074660B9402E0CDD4FF0FF34104B1B78062B01D0FFF788FEA3
:202D2000204605B0F0BD0020FBE7284669460EF075F901280446EBD1084B39461F68402256
:202D4000A037384615F016FD38462946324615F037FCDFE7149201008E390020943B002026
:202D60000B2901D00020704710B514460A460F4915F07CFD08B1002010BD204615F0E4FB42
:202D80004FF6FE73421E9A420DD8094B094A1B781268062BA2F8EC0003D0FFF749FE0120C0
:202DA00010BD012010BD4FF0FF3010BD209201008E390020943B0020082901D000207047BB
:202DC00010B514460A460B4915F050FD08B1002010BD204615F0B8FB074B421F9A4206D8AD
:202DE000064AC30112680120C2F8E83010BD4FF0FF3010BD2C9201007B510100943B0020CF
:202E0000F8B50D46044600211848802215F0B2FC4DB322783AB3611900230134134D144F76
:202E200009E08C42EA5403F1010317D07E2B15D814F8012B92B1222AF3D1DA1D802A05EB0C
:202E4000030E0BD83868BE88BA798C42E85003F10603AEF804608EF80620E7D1002385F854
:202E60007F300248F8BD014DF8E700BFB81B0020D49301000CB4F0B5B0F8303183B0B3F514
:202E8000BC7F04460D463FD0B3F5C17F2FD043B100230320A4F8303103B0BDE8F04002B0F3
:202EA000704709AF00F180063B468121089A3046019708F099FAD4F854310246C1187F29B4
:202EC000C4F8740144DCE018314615F079FBD4F85421D4F874311A44C4F85421002DD7D0A4
:202EE000002AD5DD4FF4C173A4F8303101E0D0F8542104F5987021460DF090FA01283BD938
:202F00000023C4F85431C3E7D0F8542104F5987021460DF083FA01282ED9D4F87831D4F813
:202F2000742100219342C4F85411B1DA03F18001D21A2144204615F043FBD4F87431D4F8AE
:202F40007811D4F854215B1A1A44C4F85421C5E7C3F180023146E01815F032FBD4F85431CF
:202F600080214FF4BC70CB1A0A46C4F87831C4F85411A4F83001C9E7002003B0BDE8F04061
:202F800002B0704770B5044640F29D10B4F8AA3182B0834269D0B3F5CF7F80F08880B3F5AD
:202FA000C97F0E46154624D000F2C680B3F5C87F07D012D8002B40F0F4804FF4C873A4F855
:202FC000AA31204600217D4AFFF754FF012840F2C08040F29113A4F8AA3120460021784A4E
:202FE000FFF748FF012840F2B4804FF4C973A4F8AA3120460021734AFFF73CFF012840F23F
:20300000A8804FF4CA73A4F8AA31324620460021FFF730FF012840F29C8040F29513A4F880
:20302000AA3120460021684AFFF724FF012840F29080B5B1C4F858512B6893B140F2991378
:20304000A4F8AA312A6820460021FFF713FF01287FD9D4F858510435C4F858512B68002B86
:20306000ECD140F29D13A4F8AA3120460021574AFFF700FF01286CD94FF4CF73A4F8AA31B3
:2030800020460021524AFFF7F5FE012861D940F29F13A4F8AA31204600214E4AFFF7EAFE69
:2030A000012856D940F2A313A4F8AA310EE0B3F5D47F7FD050D840F29F129342EBD0B3F5DE
:2030C000CF7FDDD940F2A31293426AD120460021414AFFF7CFFE01283BD9404809F0C0FBA7
:2030E00002464FF4D473C4F86001A4F8AA3153689268204600920021394AFFF7BBFE012841
:2031000027D9D4F860311A68C4F8602192B340F2AD13A4F8AA315368926820460092002117
:20312000304AFFF7A7FE012813D9D4F860311B681A46C4F86031E9E740F2951293423FF427
:2031400070AF40F29912934231D0B3F5CA7F28D15BE7002002B070BDB3F5D97F0ED040F262
:20316000B512934216D040F2AD12934219D1D4F86021D0E74FF4D973A4F8AA31204600218C
:20318000194A1A4BFFF776FE0128E2D940F2B513A4F8AA3120460021154AFFF76BFE01283A
:2031A000D7D900230320A4F8AA3102B070BDD4F8585147E7D4F8602199E700BFC49301003C
:2031C000EC920100FC9201005C93010090920100549301004C920100DC9301004C18002013
:2031E000E8930100009401001C940100801700202494010040F2FA2230B5B0F8A83183B0B6
:203200009342044600F02F8222D840F2C322934200F05D81B3F5317F3CD2B3F52B7F00F092
:20322000F58040F2AF8040F2B522934200F0158140F2F083B3F52F7F00F02D81B3F5307F64
:2032400000F0368140F2BA22934240F0A28311E1B3F54B7F00F0FA823BD8B3F5447F00F051
:2032600095827DD940F21F32934200F0B982B3F5487FC0F0DA8340F22532934200F0CC8246
:20328000B3F54A7F00F0D58240F22232934240F08083B4E240F2DF22934200F07D81B3F5B4
:2032A000387F48D340F2E922934200F0A28140F29C8340F2F222934200F0B78140F2F72238
:2032C000934200F0BF8140F2EF22934240F061839CE140F24232934200F0128316D940F21F
:2032E0004932934200F02D8340F26C8340F24D32934200F03C8340F24F32934200F042834B
:2033000040F24B32934240F0448325E340F23632934200F0C68240F25D83B3F54F7F00F00B
:20332000D782B3F5507F00F0DE8240F23A32934240F02F83C1E240F2D122934200F0F28019
:2033400040F25E83B3F5367F00F0088140F2DB22934200F01481B3F5357F40F01A83F0E002
:2033600040F20632934200F0A78100F2208340F2FE22934200F0848140F20132934200F01B
:203380008E8106E340F2A322934200F05F83B3F5297F80F00783002B00F05A8340F29F2262
:2033A000934240F0F682D94D2046A968D84AFFF7E9FD012840F2F38240F2A323A4F8A831B8
:2033C00020460021D34AAB68FFF754FD012840F2E6824FF42A73A4F8A8316B68204600217D
:2033E000CD4AFFF747FD012840F2D98240F2AA23A4F8A83120460021C84AFFF73BFD012862
:2034000040F2CD824FF42B73A4F8A83120460021C34AFFF72FFD012840F2C18240F2AE237E
:20342000A4F8A83120460021BE4AFFF723FD012840F2B58240F2B223A4F8A831BA4B2046F9
:2034400000930021B94ABA4BFFF714FD012840F2A68240F2B523A4F8A83120460021B54A21
:20346000B54BFFF707FD012840F2998240F2BA23A4F8A8312021B148FFF7C2FC0021034600
:20348000AF4A2046FFF7F6FC012840F288824FF42F73A4F8A83120460021AA4AA24BFFF7C8
:2034A000E9FC012840F27B824FF43073A4F8A8319D4B204600930021A34A9D4BFFF7DAFCD1
:2034C000012840F26C8240F2C323A4F8A83120460021984A984BFFF7CDFC012840F25F82CF
:2034E0004FF43273A4F8A83120219848FFF788FC00210346924A2046FFF7BCFC012840F21F
:203500004E8240F2CA23A4F8A83120460021904A854BFFF7AFFC012840F2418240F2D12331
:20352000A4F8A831804B204600930021894A804BFFF7A0FC012840F232824FF43573A4F86B
:20354000A831204600217B4A7B4BFFF793FC012840F225824FF43673A4F8A83101217E48B0
:20356000FFF74EFC00210346754A2046FFF782FC012840F2148240F2DB23A4F8A83120460C
:203580000021764A684BFFF775FC012840F2078240F2DF23A4F8A831634B204600930021DB
:2035A0006F4A634BFFF766FC012840F2F88140F2E223A4F8A831204600215E4A5E4BFFF7FE
:2035C00059FC012840F2EB8140F2E623A4F8A83101216148FFF714FC00210346584A2046DC
:2035E000FFF748FC012840F2DA8140F2E923A4F8A831204600215B4A4B4BFFF73BFC012810
:2036000040F2CD8140F2EF23A4F8A831464B204600930021544A464BFFF72CFC012840F21E
:20362000BE8140F2F223A4F8A83120460021414A414BFFF71FFC012840F2B18140F2F72307
:20364000A4F8A83108214948FFF7DAFB002103463B4A2046FFF70EFC012840F2A08140F26D
:20366000FA23A4F8A83120460021414A2E4BFFF701FC012840F2938140F2FE23A4F8A83103
:20368000294B2046009300213A4A294BFFF7F2FB012840F2848140F20133A4F8A831204620
:2036A0000021244A244BFFF7E5FB012840F2778140F20633A4F8A83120212F48FFF7A0FBBA
:2036C000002103461E4A2046FFF7D4FB012840F2668140F20933A4F8A83120460021274AD0
:2036E000114BFFF7C7FB012840F2598140F20D33A4F8A8310C4B204600930021204A0C4B68
:20370000FFF7B8FB012840F24A813BE0C00700206C070020309401003C9401005C940100BE
:20372000749401009894010004930100B09401007C920100C094010054920100FC390020D6
:20374000D8940100E4940100F8940100DC3900200495010018950100D49401002895010052
:203760003C9501004C95010060950100BC3A002074950100889501005C3A00209C95010079
:20378000B49501004FF44473A4F8A83120460021B24AB34BFFF76EFB012840F2008140F282
:2037A0001533A4F8A831AF4B2046D3F8F8300021DB09AD4AFFF75EFB012840F2F08040F2B1
:2037C0001B33A4F8A83120460021A84AA84BFFF751FB012840F2E38040F21F33A4F8A831C1
:2037E000A34B204600930021A24AA34BFFF742FB012840F2D48040F22233A4F8A8312046A3
:2038000000219E4A964BFFF735FB012840F2C78040F22533A4F8A83120460021984A994BAA
:20382000FFF728FB012840F2BA804FF44A73A4F8A83120460021944A8D4BFFF71BFB0128F3
:2038400040F2AD804FF44B73A4F8A831884B2046009300218D4A884BFFF70CFB012840F2A4
:203860009E8040F22F33A4F8A831204600217B4A7B4BFFF7FFFA012840F2918040F232331D
:20388000A4F8A831774B2046B3F8FC300021804AFFF7F0FA012840F2828040F23633A4F855
:2038A000A831204600217B4A714BFFF7E3FA012875D940F23A33A4F8A83120460021764A82
:2038C000FFF7D8FA01286AD94FF44F73A4F8A83120460021714AFFF7CDFA01285FD94FF497
:2038E0005073A4F8A8316E4B20465B6800216D4AFFF7C0FA012852D940F24233A4F8A831B6
:2039000020460021684AFFF7B5FA012847D94FF45173A4F8A83120460021644AFFF7AAFA35
:2039200001283CD940F24633A4F8A831204600215F4AFFF79FFA012831D940F24933A4F8ED
:20394000A831204600215B4AFFF794FA012826D940F24B33A4F8A83120460021564AFFF774
:2039600089FA01281BD940F24D33A4F8A831204600214A4AFFF77EFA012810D940F24F3331
:20398000A4F8A831204601214C4AFFF773FA012805D900230320A4F8A83103B030BD0020AF
:2039A00003B030BDB3F52A7F4AD13D4D15E540F2093293423FF491AE40F20D3293423FF44A
:2039C00099AEE6E7B3F5517FA5D040F246329342ACD0DEE740F22F3293423FF446AF40F264
:2039E000323293423FF44EAFD3E740F2E22293423FF4E1AD40F2E62293423FF4E9ADC8E751
:203A0000B3F5327F3FF470AD40F2CA2293423FF47CADBEE740F2AE2293423FF403AD40F21D
:203A2000B22293423FF40AADB3E740F2153293423FF4B9AE40F21B3293423FF4C4AEA8E7E9
:203A400040F2AA2293423FF4D5ACA2E7144DB7E440F29F23A0F8A831A5E400BFCC9501004B
:203A600054920100CC390020E4950100F4950100049301001C9601007C920100C094010087
:203A8000D89401007C3A00202C9601004096010054960100609601008C960100B4960100F9
:203AA000C00700203C9401005C9401007494010098940100BC960100F09601000C930100AD
:203AC000F8B540F2F5360446B0F8A8011546B0421F466ED020D940F2FF33984247D040F2D1
:203AE000014398424FD040F2FA33984252D1D4F858311A6820460021FFF7BCF901284ED9D4
:203B0000D4F858310433C4F858311A685AB340F2FA32A4F8A821ECE740F2ED33984205D0AE
:203B2000B0F57C7F3DD0A8BBA4F8A8310A4620460021FFF79FF9012831D9254AC4F85821C4
:203B400013688BB34FF47C73A4F8A831126820460021FFF78FF9012821D9D4F858210432E8
:203B6000C4F85821ECE740F2FF33A4F8A8312B4620460021174AFFF77DF901280FD940F25C
:203B80000143A4F8A83120460121134AFFF772F9012804D90023A4F8A8310320F8BD002090
:203BA000F8BDD4F85821D1E75FB140F2F533A4F8A8313B4620460021084AFFF75BF90128A7
:203BC000EDD9069B002BCED0069BC4F858319CE79807002020970100349701001097010061
:203BE00040F25E2210B5B0F8A83184B09342044600F098811CD940F27E22934200F007825C
:203C000036D840F26922934200F0BF8140F20781B3F51D7F00F0D88140F27182B3F51E7F23
:203C200000F0DF8140F27A22934200F0E5814FE240F23D22934200F06D8231D940F24B221C
:203C4000934200F0D180B3F5137FC0F0068140F25222934200F0408140F22E8140F2572225
:203C6000934200F04581B3F5177F00F04D812FE2B3F5227F00F0F98140F2E08040F28D2286
:203C8000934200F0088240F2408240F28F22934200F00C8240F29122934200F0128217E274
:203CA000B3F50C7F27D000F21C8240F22722934208D040F22B218B4211D0002B40F0088211
:203CC000A0F8A8216B4B204699686B4AFFF75AF9012840F2038240F22B23A4F8A83120462D
:203CE0000021664AFFF7C6F8012840F2F7814FF40C73A4F8A8315F4B20465B680021604A97
:203D0000FFF7B8F8012840F2E98140F23223A4F8A831204600215B4AFFF7ACF8012840F21B
:203D2000DD814FF40D73A4F8A83120460021564AFFF7A0F8012840F2D18140F23623A4F864
:203D4000A83120460021514AFFF794F8012840F2C581FDF7AFFBC4F85C01002800F0DD8118
:203D600040F23D23A4F8A831C168494A494B20468DE80E000021484A484BFFF77BF801282B
:203D800040F2AC814FF41073A4F8A83120460021434AFFF76FF8012840F2A0814FF41173D5
:203DA000A4F8A831D4F85C313E49587F3E4A5B69002818BF0A462046009200213B4AFFF7A8
:203DC00059F8012840F28A8140F24623A4F8A83120460021364AFFF74DF8012840F27E8180
:203DE00040F24B23A4F8A831D4F85C312E49587F2C4A5B69002818BF0A46254900920191EC
:203E0000204600212B4AFFF735F8012840F26681D4F85C311B681846C4F85C319DE740F208
:203E20006222934200F0968040F26622934200F09D80B3F5187F40F04B817FE0B3F5217FA5
:203E400000F0FD8040F28622934200F0038140F28222934240F03C81E4E0B3F5117FA1D0CD
:203E600040F246229342B3D0B3F5107F40F030818CE700BF5C0700206C0700205497010004
:203E80003C9401005C94010074940100989401000493010054920100689701007C9201009C
:203EA00074970100489701002C91010094970100AC970100CC970100B3F5147F40F0088190
:203EC00020460021974AFEF7D5FF012840F2068140F25223A4F8A83120460021924AFEF75B
:203EE000C9FF012840F2FA8040F25723A4F8A831204600218D4AFEF7BDFF012840F2EE802C
:203F00004FF41773A4F8A831894B20465B680021884AFEF7AFFF012840F2E08040F25E235E
:203F2000A4F8A83120460021834AFEF7A3FF012840F2D4804FF41873A4F8A83120460021A8
:203F40007E4AFEF797FF012840F2C88040F26223A4F8A83120460021794AFEF78BFF01284D
:203F600040F2BC8040F26623A4F8A831754B204600930021744A754BFEF77CFF012840F280
:203F8000AD8040F26923A4F8A83120460021704A704BFEF76FFF012840F2A08040F26E2324
:203FA000A4F8A8316C4B2046DB680021002BB8BF7F33DB11694AFEF75DFF012840F28E805E
:203FC0004FF41D73A4F8A83120460021644A5D4BFEF750FF012840F281804FF41E73A4F8AC
:203FE000A831204600214F4AFEF744FF012875D940F27A23A4F8A831204600214A4AFEF7C5
:2040000039FF01286AD940F27E23A4F8A83120460021544AFEF72EFF01285FD940F2822335
:20402000A4F8A831424B20465B680021414AFEF721FF012852D94FF42173A4F8A83120468E
:2040400000213D4AFEF716FF012847D940F28623A4F8A83120460021384AFEF70BFF0128E4
:204060003CD94FF42273A4F8A83120460021344AFEF700FF012831D940F28B23A4F8A8315D
:2040800020460021384AFEF7F5FE012826D940F28D23A4F8A83120460021344AFEF7EAFECE
:2040A00001281BD940F28F23A4F8A831204600211D4AFEF7DFFE012810D940F29123A4F836
:2040C000A831204601212A4AFEF7D4FE012805D900230320A4F8A83104B010BD002004B02D
:2040E00010BDB3F50D7F3FF420AE40F2362293423FF427AE40F232229342E9D109E640F221
:204100006E2293423FF44EAFE2E740F28B229342B6D0DDE7D0F85C0126E64FF41473A4F8AC
:20412000A831CDE68C960100B4960100E89701005C0700203C9401005C94010074940100B7
:204140009894010004930100009801007C920100CC95010054920100CC390020E49501000A
:20416000149801004098010054980100849801000C93010040F2F11270B5B0F8A83192B0F2
:204180009342044608BF02AD00F01B81B3F5F97F1CD2B3F5EA7F08BF02AD00F0BD8130D932
:2041A000B3F5F17F00F06E8240F2A48040F2E912934200F0DA8040F2ED12934200F0E88007
:2041C00040F2E512934240F08981C2E0B3F5037F00F05A827BD940F21522934200F04D81BF
:2041E00040F23881B3F5067F00F0668140F21A22934200F06C8140F21722934240F06E8151
:204200004CE140F2C712934218D0B3F5E47F80F09581002B00F0168240F2C312934240F059
:204220005D81CB4B204699680022FEF7ABFE012840F2658140F2C713A4F8A831204600211A
:20424000C44AFEF717FE012840F25981C24B186810F040FB0346C4F86801002B00F0D0816F
:204260004FF4E673A4F8A83120460021BB4AFEF701FE012840F2438102AD002140222846EE
:2042800014F078FA28464021D4F86821FDF7C0F84FF4E873A4F8A83120460021B04A2B46D3
:2042A000FEF7E8FD012840F22A8128460021402214F060FAD4F868315B7C042B00F22881C9
:2042C000DFE813F0D801D2012001C501CC0140F2FD12934200F0AD80B3F5FF7F80F05C810E
:2042E000B3F5FA7F7AD040F2F912934240F0F68002AD92E0B3F5EC7F00F0868140F2DD124F
:20430000934240F0EB8020460021964AFEF7B2FD012840F2F48002AD00214022284614F0AF
:2043200029FA0BF00FFD402102462846FDF770F84FF4F173A4F8A8312B4620460021884AFA
:20434000FEF798FD012840F2DA8040F2E513A4F8A83120460021844AFEF78CFD012840F251
:20436000CE8040F2E913A4F8A831204600217F4AFEF780FD012840F2C2800BF017FBC4F824
:204380006401002800F0B08040F2ED13A4F8A83120460021714AFEF76DFD012840F2AF809E
:2043A00002AD00214022284614F0E4F9D4F86421284608324021FDF72BF840F2F113A4F839
:2043C000A8312B4620460021654AFEF753FD012840F295804FF4FA73A4F8A831D4F8643122
:2043E000204693F824300021614AFEF743FD012840F2858002AD00214022284614F0BAF9C0
:20440000D4F864010BF0C4FA402102462846FCF7FFFF40F2F913A4F8A8312B4620460021FF
:204420004F4AFEF727FD012869D940F2FD13A4F8A831D4F8643120469B6900214D4AFEF730
:2044400019FD01285BD9D4F864010BF0B5FAC4F8640196E7B3F5047F00F0E78040F2132287
:2044600093423BD120460021434AFEF703FD012845D940F21523A4F8A831404E204635887B
:2044800000210135ADB22B463D4A3580FEF7F2FC012834D940F21723A4F8A83105F08CF945
:2044A00000210346374A2046FEF7E4FC012826D94FF40673A4F8A83120460021324AFEF785
:2044C000D9FC01281BD940F21A23A4F8A831204601212E4AFEF7CEFC012810D900230320EF
:2044E000A4F8A83112B070BD40F20123A4F8A831204600211C4AFEF7BDFC01287BD8002056
:2045000012B070BD224B93E8030002908DF80C104FF4EA73A4F8A8312B46204600211D4A1A
:20452000FEF7A8FC0128EAD90B4BD4F86811186810F098F90346C4F868018EE6B3F5E67F5B
:204540003FF492AEB3F5E87FC8D102ADA4E600BFB0070020AC980100F00800204497010038
:204560001098010004990100F49801001C990100309901003C9901006C990100763900203C
:204580007499010088990100289401000C930100D89801006899010040F201229342A7D07A
:2045A00040F20522934299D120460021384AFEF761FC0128A3D9FCF77DFFC4F85C0180B3A8
:2045C0004FF40373A4F8A831427FC368002A57D000F11F02009282690021019220462D4A50
:2045E000FEF748FC01288AD9D4F85C311B681846C4F85C31E3E740F20523A4F8A831D3E720
:204600004FF4EC73A4F8A83120460021224AFEF731FC01287FF673AF40F2DD13A4F8A83117
:2046200071E64FF40473A4F8A831204600211A4AFEF720FC01287FF662AF40F21323A4F845
:20464000A8310FE740F2C313A0F8A831E9E5134B93E8030002908DF80C1059E72B46104A2A
:2046600007CA03C31A7053E72B460E4A07CA03C31A704DE72B460C4A07CA03C31A8047E79B
:204680000A4AA7E702AD57E6D0F85C019CE700BF4C99010060990100F4980100E0980100FF
:2046A000E8980100CC980100C0980100A898010038B5B0F8303104460D469BB140F2E13256
:2046C00093420AD1284614F0A3F82946024604F598700BF0A3FE012809D90023A4F830319E
:2046E000032038BD40F2E133A0F83031EAE7002038BD00BF40F22642F0B5B0F8A63183B0CD
:204700009342044600F024811AD940F23642934200F0D4802FD840F22C42934242D040F26F
:204720002D4293424CD040F22742934254D120469449FFF7BDFF012848D8002003B0F0BDC6
:2047400040F21A42934200F0EF8040F2D680B3F5846F00F0908040F22142934200F09A8000
:2047600040F21B42934237D120468749FFF7A0FF01282BD8E1E740F23F42934261D0B3F5AD
:20478000886F6DD0B3F5876F26D1A6E0042B00F0C980052B6BD0022B00F0D68040F22C43E3
:2047A000A0F8A631794B204600937949794A0023FFF786F90128C0D940F22D43A4F8A631D9
:2047C00020467549FFF774FF0128B6D9734A102100231170C4F86C3100230320A4F8A631F0
:2047E00003B0F0BD90F8AD11C0F86C310229A0F8A831A0F8AA3100F0BB800129E6D16848F3
:2048000008F02EF804F27D17054630B949E0284608F08CF80546002843D06E68304613F0D4
:20482000F7FF31460246384614F04AF80028EED1EB68C4F86C31002B36D040F23F43A4F8EB
:20484000A631524B204600935649574A0023FFF737F901287FF671AF4FF48863A4F8A63103
:20486000D4F86C31204698470128AFD865E74FF48463A0F8A631454B204600934B49454A49
:204880000023FFF71DF901287FF657AF40F22143A4F8A63120464649FFF70AFF012895D8B2
:2048A0004BE70023C4F86C3104F5BE704149102214F050F840F23643A4F8A631334B204619
:2048C00000933D49384A0023FFF7FAF801287FF634AF4FF48763A4F8A63120463749FFF735
:2048E000E7FE01287FF629AF2C4A1021002302201170A4F8A63103B0F0BD002B3FF472AF9E
:2049000040F2154293427FF467AF0023009320462B49204A04F5BE73FFF7D2F801283FF66E
:2049200055AF0AE7A0F8A621184B204600932549184A0023FFF7C4F801287FF6FEAE40F2A6
:204940001B43A4F8A6310FE740F22643A0F8A6310E4B204600931C490E4A0023FFF7B0F8B6
:2049600001287FF6EAAE40F22743A4F8A631DEE690F8AE31002B7FF409AF40F21543A0F84F
:20498000A631C2E7D8990100A099010054070020A892010068930100F0990100403F002010
:2049A0004C1800201C930100E092010094930100BC990100009A0100C4920100109A010035
:2049C0009C9B0100749301003093010040F25F422DE9F04FB0F80C3187B09342044600F080
:2049E0007C81B3F58C6F26D340F27F42934200F07181B3F5906FC0F03A8140F29942934280
:204A00005CD040F2BC4293421ED100F5867948460A210BF05BFD012809D940F2BC434846AC
:204A2000A4F80C310A210BF051FD0128F5D8002007B0BDE8F08F40F24D4293420DD040F293
:204A400051418B4237D033B100230320A4F80C3107B0BDE8F08FA0F80C2104F586794846C7
:204A600020210BF033FD0128E1D904F5C6752846B549042213F0FAFE002840F0D38140F248
:204A800051420123A4F80C2184F8AD31484620210BF01CFD0128CAD994F88C312F2B00F0FA
:204AA000F181AA4A1021002302201170A4F80C3107B0BDE8F08F00F58679E7E7D0F870B13A
:204AC00000F586791FFA8BF148460BF05DFD0128ADD948460BF0F4FCD4F8703104F5C675A1
:204AE000181AC4F8700148460BF0EAFCD4F870B10646002800F00C82A846DFF86CA28DE8C1
:204B00001008DAF800200027531C042B2DD8DFE803F05803031A60008D4C002140228D48FE
:204B200013F028FE002140228B4813F023FE002140228A4813F01EFE8949002302220B60DA
:204B40002360CAF8002098F800303D2B00F05D81262B00F0848082490A683E2A7FDC7D4DEB
:204B6000501CAB54DAF8002008600137BE4208F10108C9D1009CD4F870B1013224D0794D26
:204B8000BBF1000F03DD2B68A34200F0B78194F8AE3133B9744B1B68012B1CBF032384F898
:204BA000AE31724E3378002B40F09A812A686D4900239442337008BF0B60012384F8AC31A2
:204BC0002BE7009CD4F870B10323664D84F8AE31D6E798F80030262B00F0A0803D2B00F0D0
:204BE00064815B4C22683E2A00F35F81711E5A4D501C8F42AB54206000F0AB810322B4E796
:204C0000039FDDF81080059C029A002302F80B30524813F0FDFD2060554807F021FE554D8C
:204C20002860002800F081814FF0010B02960AE0BBF1010F00F07C81286807F077FE2860D8
:204C4000002800F071814668444A424826B1444B19682368B0478346BBF1FF3FE8D1009C13
:204C60004FF0FF33CAF80030D4F870B1ACE740F2694293427FF4E8AE00F5867948460A21E9
:204C80000BF024FC01287FF6D2AE00220423C4F8702184F8AE3105E048460BF011FC022845
:204CA00000F0D08048460BF00BFC0023204480F88C3148460BF004FC0E2800F2D08040F235
:204CC0007F43A4F80C3148460A210BF0FFFB0128E2D8ACE600F58679F5E700F586794846C4
:204CE00020210BF0F3FB01287FF6A1AE94F88C312F2B7FF4D6AE48460BF0E2FB0023204416
:204D000080F88B3104F5C67104F5BE70102213F021FE40F26943A4F80C31AFE70C4CD4F843
:204D200000C0BCF1000F00F01081134A0B4B12684FF0000B02939E4605945B460397CDF8ED
:204D4000108014462CE000BFBC930100403F002004180020401C00200C180020801C0020F7
:204D60003C1C0020081800200018002090390020381C002054180020500A00202B2A00F09B
:204D80009980591C0B468EF800209C450BF1010B7FF636AFBBF13F0F0EF1010E3FF430AF31
:204DA0006E4AD25C252AE9D16C48591C405C25186D7815F0440FE5D0684F1F44BF7804EBD0
:204DC000070898F8018018F0440FDBD005F00305012D08BF2030221808F003085278B8F1BB
:204DE000010F08BF2037550740F19A80000100F0F002E1194978033349074CBF303F573FAA
:204E0000F9B20A438EF80020BFE701370323BE4208F10108CAF800307FF4DBAE009CD4F898
:204E200070B1ACE628464E49052213F01FFD00287FF437AE40F25F420223A4F80C2184F8B7
:204E4000AD314CE7D4F870B1BBF5807F38DD00220523C4F8702184F8AE31424D97E604F599
:204E6000C67041490F2213F001FD054600287FF426AF04F29B1013F067FB84F8AE51C4F848
:204E800070011CE794F88D31202B30D048460BF017FB0023204480F88B3104F5C67104F58A
:204EA000BE70102213F056FD87E64FF0FF32CAF800205AE64FF0200201338EF8002064E7B7
:204EC00094F8AE31274D33B92B6823B39C4218BF84F8AE0120D0BBF1000F3FF754AE60E695
:204EE000224B00201978024607F09EFA5EE604F5BE701F49102213F02DFD5EE694F8AE31DC
:204F0000002B7FF44EAE40F29943A4F80C31D9E5184B1A6831E62C60164B00221A602FE6B8
:204F200057380201D2B264E7029EDAF800201CE6029E114A0137BE42CAF800B008F10108D5
:204F400082F800B07FF4E9AD68E70C4BE34602935AE6019B002B7FF451AEE0E60C18002037
:204F600074920100081800206C9A0100CA450020689201000018002090390020801C0020DC
:204F80002DE9F0410388044683B1154640F20C52934206D1474B1B788B4227D00120BDE87B
:204FA000F081002303800320BDE8F081424804F047FD07F0B7F9414B18704FF4A0400BF006
:204FC000B1FB3F4807F0B6FC3E483F4907F04AFC3C483E4907F046FC3A483D4907F042FC29
:204FE00040F20C5323800120BDE8F081394E337813F0300726D11A0624D403F0400202F0A4
:20500000FF087ABB002D52D01B0705F5827026D507F0A2FA58B14146202328464FF4D8729B
:20502000337013F0A7FB2648294607F0B3FC2846FFF7CCFC95F8AC31012BD1D12846FFF7DD
:2050400059FBCDE7002DCBD0284600214FF4D87213F090FB29461A4807F09CFCC0E707F0D8
:2050600075FAE4E7164807F077FC0546F8B11A4B014605F5C67618680BF06EFB314605F503
:20508000867019220BF0FAFA314605F5987019220BF0F4FAA5F8A671C5F86C7185F8AC716B
:2050A00005F582704FF4A06107F042FABFE72023337095E7CE4500207C9A0100CA4500200C
:2050C000A40700204C180020B00700205C070020C0070020403F0020503F00200146014862
:2050E00007F0C0BB381C002094462DE9F04F11F80F3F91B003F00F0400EBC404D4E9266700
:20510000CDF83CC0DFF86CE104F11805D5E900451B090F22CDE900890E9184462BE00E98E7
:20512000DDE9066710F8013DCDF828A00E905148CDF830A050F8310003F00F0100040CEB26
:20514000C101D1E926450D9066406F40DDE90489DDE90A4544EA080445EA0905DDE90C893C
:2051600088EA060889EA07094646D1E906014F4644404D401B0920090090300902900098F9
:2051800004F00F0140EA05705EF8311000900298090440EA0770099139090CEBC3030290D2
:2051A00003914FF0000A28094FEA067BD3E92645DDE90267CDF820A06640DDE9088988EADD
:2051C000060846466F4089EA07094F460190D3E9060133070B933309DDE9004543EA097352
:2051E00044EA0A04444045EA0B0506933B094D400793230943EA0573013A04932B0905933D
:20520000531C04F00F018AD1DDF83CC04FEA196B4FEA194A4FEA164E300A4FEA19294FEA0B
:205220001868290E2A0C2B0A8CF803708CF80760270E260C8CF80F40240A8CF80B508CF89F
:2052400000B08CF801A08CF802908CF804808CF805E08CF806008CF808108CF809208CF89B
:205260000A308CF80C708CF80D608CF80E4011B0BDE8F08FF08A01002DE9F04F8A4600218B
:205280000E465E4F8BB04FF4A4720546039013F071FA50463B68069607960896099698479F
:2052A0007B6806A898479DF81B70B2463C469DF821309DF820E09DF819209DF818C09DF899
:2052C00023701B0443EA0E6312049DF822E03B4342EA0C629DF81AC043EA0E2B22439DF8EA
:2052E0001D3042EA0C219DF81CC09DF81FE09DF825201B049DF8247043EA0C639DF81EC0D2
:2053000043EA0E03304612049DF8276043EA0C2C42EA07625B469DF82670324342EA072712
:205320004AEA0702AA4640EA0C0000260027C5E93601C5E91623C5E92667C5E906674FF05C
:20534000030C4FF0040E02F001067701F61B5B084FEA32024FEA06694F084FEA3006C50761
:20536000002484EA060022430AEBCE062B4389EA0701BCF1010CC6E92601C6E906234FEADD
:205380006E0EE0D1039A03230093134698330493134618334FF0020C0593039C0CF1130196
:2053A0000CF10302DDF810E0059804EBC10104EBC202012304EBCC04D4E92689D4E906AB68
:2053C000FEE9026788EA060489EA0705E1E902450133F0E9026763458AEA06048BEA070554
:2053E000E2E90245ECD14FEA430C009B013B0093D3D118460BB0BDE8F08F00BF48A0010063
:205400002DE9F04F04469A46884600F5947B87B0002191465846102204F59C77109E119DD4
:2054200013F0A8F900213846102213F0A3F900200021BAF10C0FC4F80080C4E90201C4E9B8
:20544000040100F087804FEACA0200214FEA126C4FEA124E100A8DF817208DF814C08DF826
:2054600015E08DF81600029103910491BAF1000F20D004F227130193D046BAF1100F28BFAB
:205480004FF0100808F2271E019AA64409F1FF3012F8011F10F801CF72458CEA0101117016
:2054A000F6D1204659465A46FFF71EFEBAEB080AC144E1D1002001465A460DF1080E01E004
:2054C0001EF8010F137801314340102902F8013BF6D1204659465A46FFF706FEDBF80000BE
:2054E000DBF804C0DBF808E0DBF80C10214A04F58C73C4F81801C4F81CC11846C4F820E17F
:205500005368C4F824119847002325616361EDB104F23718A9464346102D28BF4FF01009BC
:2055200009F2371EA644711E13F8012F11F8010F734582EA00021A70F6D1204639463A4672
:20554000FFF7D2FDB5EB09054E44E3D1002007B0BDE8F08FD9F80000D9F80410D9F80820E8
:205560000123C4F82801CBF80410CBF8082084F83731B3E748A001002DE9F04F0F46054604
:2055800000F10801D1E90001C01987B041F100010093C5E90201002F4ED09346284B05F53C
:2055A0009C795B6805F59A7A019305F594784C464A46102F3E4628BF102612F8013D0133ED
:2055C000DBB213700BB95245F7D1D8F80000D8F80410D8F80820D8F80C300DF1080EAEE836
:2055E0000F00019B02A89847009B06F1FF3C0DF1070EDC440BF1FF32591E12F8010F1EF8A3
:20560000013F0134434001F8013F2868012818BF137814F8010C624583EA000304F8013CD5
:20562000EBD1009B2846334449464A460093FFF75BFDBF1BB344BAD1002007B0BDE8F08FD7
:2056400048A001002DE9F04F804689B000240025CDE90045D8F80C408068E4000194D8F87C
:205660001440D8F81030E700019C8B4644EA5074C100019447EA53770091DE000392002A00
:2056800040F092804B4805F06DFE08F2171A08F227191AF8011F484805F064FECA45F8D17F
:2056A000DDE90023134302D156EA070378D0019C4FEA17494FEA176E4FEA172C8DF81370CE
:2056C000270EDDE900458DF81F402C468DF811904FEA1449019C320E330C8DF81B508DF8E7
:2056E0001420250A009A8DF81530009C009B120E240A08F59C718DF817601B0C360A8DF86C
:205700001C208DF81E4008468DF810E08DF812C08DF816608DF818708DF819908DF81A502B
:205720008DF81D3004AC002201E014F801EF037801328EEA0303102A00F8013BF5D1404602
:205740000A46FFF7D1FC039B0BF1FF3508F2371473B12B462146039A02F1FF3ADA4413F835
:20576000012F11F8010F534582EA00021A70F6D112480BF10F0B05F0F5FD15F8011F0E48AF
:2057800005F0F0FD5D45F8D10D4805F0EBFD08F2471814F8011F084805F0E4FD4445F8D18D
:2057A000002009B0BDE8F08F584608F58C7112F007FF67E7B49B0100348C0100C89B010089
:2057C000E49B010030B583B0079C069D0194044600950B9DFFF714FE099B20460A99089A78
:2057E000FFF7CAFE294620460C9AFFF72BFF074805F0B8FD6C1E0F3514F8011F044805F01C
:20580000B1FDAC42F8D103B030BD00BFF89B0100348C010000214FF4A47212F0ABBF00BFCA
:20582000F0B504460D461746DBB01946609A08A8659EFFF721FD639B10210093649B0295C6
:205840000193039408A8619A629B0691049701210596FFF7B7FF094805F084FD741E06F18A
:205860000F0514F8011F064805F07CFDAC42F8D108A8FFF7CFFF30465BB0F0BD109C010026
:20588000348C010010B50446436E9847034BE06E19780022BDE8104006F0C6BDCB450020BB
:2058A000F0B5044600250623012785B080F86030A0F86870A0F89C5280F8385029464FF49E
:2058C000067200F5956012F055FFDFF848C0DFF848E004F22C7604F174024FF4007384F8FD
:2058E000B67484F8745221460092304604F2A622CDF808C0CDF80CE001930BF079FA304659
:20590000B4F8282704F5E36105B0BDE8F0400BF0A7BA00BF215A0000C55D000070B504469E
:2059200000F17403002503672946242204F22C7680F86A5000F51E7012F01CFF30460BF0E0
:20594000F1FA30460BF0FCFA30462946342212F011FF042384F8603070BD00BF026F00F127
:2059600074018A4207D0002380F87432521A00F22C700BF0B9BA012380F87432704700BFAE
:20598000F8B505461646D0F8A022006F05F51D731C1AB71ABC4228BF3C46A4B211442246AF
:2059A00012F00EFE2A6FD5F8A03222441C44A6422A67C5F8A04206D02846FFF7CFFFD5F8EE
:2059C000A002301AF8BD0020C5F8A002F8BD00BF10B5044638B1016021B1084612F018FFA1
:2059E000A08010BD818010BD10B50446042100F5D862FFF747FF94F80E37B4F81217012B7B
:205A000004BF002384F80E3741B904F595604FF4067212F0AFFE012384F8B63410BD00BF77
:205A2000002B00F00C812DE9F04F9A4691F8B03485B016460D46002B40F0138195F8B134D7
:205A4000002B73D095F8B7344FF00009002B7ED0B5F8B214D5F8AC2495F8B134B1F5007FF8
:205A600023F00F0300F2ED8001318A424FF001074FF0000832D2302B00F0938095F8B9046A
:205A8000C9EB0A04C0F500739C4228BF1C462844224606EB090100F2BA4012F091FDD5F8DD
:205AA000AC2495F8B93422442344A144C5F8AC2485F8B93424B100200130C0B28442FBD8C2
:205AC000B5F8B214D14501F1010101D38A4264D395F8B1348A4223F00F03CCD3DBB2502B68
:205AE00000F02E8100F2D780302B00F01881402B00F00381202B40F0AD8095F8BB44002C9B
:205B000040F03381E98A012385F8993205F118002B46C9019A4A06F0FDF9092385F8603070
:205B2000284621462246FFF7ADFE93E0D5F8AC3432780133BAF1010FC5F8AC3485F8B124DF
:205B40002BD095F8B7344FF00109002B80D106EB09071EE0D5F8AC2495F8B80417F8014BCD
:205B600001320130052AC5F8AC2404F07F0185F8B80400F2868095F8B634B5F8B2E4D801CD
:205B800001FB03E1230689B2A5F8B21485F8B6047DD5D14509F10109DCD3002005B0BDE892
:205BA000F08F95F8BF36002B7FF468AF95F8BE36B3B916F8093009F10101501C1B025145E0
:205BC000A5F8BA36C5F8AC047ED2715C02320B43A5F8BA36C5F8AC2409F1020985F8BE765C
:205BE000B5F8BE46012C7FF449AFB5F8BC16B5F8BA36C9EB0A025B1A934228BF1346681876
:205C00001FFA83FB06EB09015A4600F2C460019312F0D6FCB5F8BC26019BD5F8AC141A44BE
:205C2000B5F8BA0692B259449042D944C5F8AC14A5F8BC2600F08A8085F80E771EE700200A
:205C40007047302B3FF410AF524401318A42C5F8AC24A2D30123002085F8B03405B0BDE8AB
:205C6000F08F01F595604FF40672002112F082FD012385F8B63495F8B134002B7FF4E2AE32
:205C800054E7284680210022FFF7FCFD85E7012385F8B734E0E6702B52D04FD9902B15D066
:205CA000B02BD7D195F8BA1495F8BB34012243EA012385F89922A5F8B4342846032105F2D0
:205CC000B442FFF7DFFDC5E78946D7E695F8BA1495F8BB34012243EA012395F8BC4485F86F
:205CE0009922A5F8B4342846022103AAADF80C308DF80E40FFF7C6FDACE795F8BA1495F83E
:205D0000BB34012243EA012385F89922A5F8B4342846052105F2B442FFF7B4FD9AE795F82D
:205D2000B91405F2BA420023A5F80C17C5F80827A5F812372846FFF757FE8BE7602B89D1DE
:205D4000284684210022FFF79DFD83E72B1885F8BF4683F8C486B5F8B234023B1B1A9BB238
:205D6000A5F81037A5F8123766E72846822105F2BB42FFF787FD2846FFF7D0FD6AE700BF4C
:205D8000855D000090F838302BB90C4B024619780B4806F049BB10B5022300F22C7480F8DC
:205DA000603020460BF0BEF820460BF0C9F82046BDE810400021342212F0DCBC91390020C4
:205DC000D007002010B582B00C468DF80720042A11D8DFE802F02F1212120300B1F84E3771
:205DE0002BB9012201F1740381F874220B6704F1180006F0B7F802B010BD154B2246197828
:205E0000144806F011FB042384F8603004F1180006F0C4F8204601210DF10702FFF732FD7E
:205E20002046FFF77BFD637D012BE4D12046FFF737FDE0E708490123072284F8602009785B
:205E400084F874322246034806F0EEFA02B010BD99390020D00700209439002008B506F087
:205E600061FA1A4A1A4B1070187006F05BFA194B187006F057FA184B187006F053FA174BE8
:205E8000187006F04FFA164B187006F04BFA154B187006F047FA144B187006F043FA134B80
:205EA000187006F03FFA124A124B1070187006F039FA114B1870114806F0CEFC10480021CB
:205EC00006F0DEFA0F4B01221A7008BD9C3900209239002094390020983900209A39002077
:205EE0009B3900209539002091390020CB450020993900209339002096390020C41C0020D9
:205F0000D0070020973900202DE9F04F044640F2AE40238883B083428DF80710154600F051
:205F2000EE802CD940F2CD418B4200F0C98074D940F2DA418B4251D040F2E7418B4228D100
:205F40007E4B9DF807101B788B4200F04D857C4B1B788B4209D87B4B1B788B4205D37A4BDF
:205F6000186806F061FA9DF80710784B1B788B4200F0878140F2E743012023800CE040F24B
:205F800089418B426BD0B3F5946F08D0002B00F0908000232380032003B0BDE8F08F674B0F
:205FA0009DF807101B788B4200F00E85644B1B788B4209D8634B1B788B4205D3624B18684F
:205FC00006F032FA9DF80710604B1B788B4200F0CD804FF4946323800120DDE7574B9DF8B2
:205FE00007101B788B4200F0AF84554B1B788B4209D8544B1B788B4205D3534B186806F03B
:2060000013FA9DF80710514B1B788B4200F0288240F2DA4301202380BEE7B3F5986FB8D141
:20602000464B9DF807101B788B4200F0AD84444B1B788B4209D8434B1B788B4205D3424B7F
:20604000186806F0F1F99DF80710404B1B788B4200F074814FF49863238001209CE7374B5D
:206060009DF807101B788B4200F06284384B1B788B4200F05484374B1B788B4200F0EB8353
:20608000354E33788B4200F0F683344B1B788B4200F00284324B1B788B4200F00E84314B6C
:2060A0001B788B4200F01A842F4B1B788B4200F0268440F289430120238003B0BDE8F08FE5
:2060C0001E4B9DF807101B788B4200F04D841C4B1B788B4209D81B4B1B788B4205D31A4BDF
:2060E000186806F0A1F99DF80710184B1B788B4200F0588140F2CD43012023804CE70F4BC5
:206100009DF807101B788B4200F04E840C4B1B788B4209D80B4B1B788B4205D30A4B1868B6
:2061200006F082F99DF80710084B1B788B4200F0098240F2AE43012023802DE79939002027
:20614000923900209339002050220020963900209C3900209439002098390020913900202A
:206160009A3900209B39002095390020B94E3768B7F89C324FF0000840F2A712934200F030
:20618000AE86B3F5D47F80F03F8440F29F12934200F0DA84B3F5D07FC0F07B84B3F5D17FF9
:2061A00000F0CB8640F23586B3F5D27F00F0B586C0F0A38640F2A512934240F03A8497F879
:2061C0007432002B48D03B6F07F51D729342397C01F07C8119703B6FC7F8A08201333B673F
:2061E0003846F9683A8AFFF7CBFB002840F073863B7D5A0700F11A8297F91430002BC0F298
:20620000E2813B7D5B0641F145813B6F07F51D72934200F09B8683F800803B6F01333B6774
:20622000934297F85C1001F0A58119703B6FC7F8A08201333B673846B96DB7F85C20FFF7C8
:206240009FFB002801F0268140F2C313A7F89C3297F87432002BEED133687E4F93F86030CD
:20626000032B01F0C5807C4A7C4B10681978002206F0DAF800283FF4ACAE3F68B7F89C3261
:206280007AE7744E356895F86030DFF8CC810027092B7FF40EAF40F29D22B5F89C32934231
:2062A00001F07D8040F2308540F2A222934201F0868000F2D68540F29F22934201F05F8062
:2062C00040F2A122934240F0F08595F874323BB32B6F05F51D72934201F09E801F702B6FFE
:2062E00001332B67934295F8861201F0618019702B6F01332B67C5F8A0722846D5F8901277
:20630000B5F89422FFF73CFB8346002801F0F88040F2A723A5F89C3295F87432002BECD111
:206320004E4BD8F800001978002206F07DF800283FF420AE356895F86030A9E7454E376831
:2063400097F8603040F2D728DFF80CA1DFF80C91092B41F05580B7F89C32434500F0F48151
:20636000B3F5367FC0F0CB8400F0138540F2E322934211D197F8B034002B00F011854FF4E4
:20638000067207F59560002112F0F4F90122002387F8B62487F8383000239DF80710A7F890
:2063A0009C3277E62B4E376897F8603040F21B28DFF8A4A0DFF8A490092B40F04982B7F802
:2063C0009C32434500F02487B3F5077FC0F06184B3F5087F2BD000F2378540F21D229342EB
:2063E00000F0C08740F21E22934240F02E8297F8743203B33B6F07F51D72934297F88C121D
:2064000001F0758019703B6F002201333B67C7F8A0223846D7F88812B7F88C22FFF7B0FA06
:20642000002800F0D5814FF40873A7F89C3297F87432002BEDD1DAF8000099F80010002210
:2064400005F0F2FF00283FF455AE376897F86030B2E700BFC01C0020502200209639002065
:20646000D24E376897F8603040F25928DFF844A3DFF83C93092B40F00884B7F89C22424543
:2064800000F05F8700F2D383B2F5157F00F0528640F2078640F256239A4200F0EE85B2F58B
:2064A000167F40F0EF8397F87432002B3CD03B6F07F51D72934200F0E487002119703B6F80
:2064C00001333B67934297F8861200F0358719703B6F01333B67B7F88C1293424FEA1121A8
:2064E00000F0C78719703B6F01333B67934297F88C1200F0108719703B6F002201333B67A1
:20650000C7F8A0223846D7F88812B7F88C22FFF737FA002800F0898740F25E23A7F89C3247
:2065200097F87432002BEDD1DAF8000099F80010002205F079FF00283FF46AAD376897F89B
:20654000603097E7994ED6F800A09AF86030DFF86482974F4FF00009032B1CD0BAF89C3231
:20656000B3F5F57F00F0C18040F2388340F2EB12934200F03F8340F2F512934240F0318339
:206580009AF87432002B00F03D835346D6F800A00022A3F89C225046FFF7C0F90121306867
:2065A0000DF10702FFF76EF99DF807106DE53846FFF7D4F94FF4DC73A7F89C3297F8743204
:2065C000002B3FF449AE3B6F07F51D729342EED083F800803B6F01333B67934297F854105B
:2065E00000F0688419703B6FC7F8A08201333B673846396DB7F85420FFF7C2F900283FF482
:2066000000AE4FF4DE73A7F89C3297F87432002BEED121E63846FFF7A1F940F2A913A7F80A
:206620009C3297F87432002B3FF416AE3B6F07F51D729342EED083F800803B6F01333B67F2
:20664000934297F8401000F09E8719703B6FC7F8A08201333B673846F96BB7F84020FFF7A0
:206660008FF9A0B14FF4D673A7F89C3297F87432002BF0D1F0E53846FFF770F940F2AD1383
:20668000A7F89C3297F87432002B3FF4E5AD3B6F07F51D729342EED083F800803B6F0133C7
:2066A0003B67934297F8481000F05E8419703B6FC7F8A08201333B673846796CB7F8482046
:2066C000FFF75EF900283FF497AD4FF4D873A7F89C3297F87432002BEED1BDE55046FFF786
:2066E0003DF94FF4F573AAF89C329AF87432002B00F08F82DAF870300AF51D729342EDD053
:20670000E0211970DAF870300133CAF87030934200F0698283F80090DAF8703050460133F0
:20672000CAF87030FFF71AF90AF104004FF4807105F0FEFE40F2F513AAF89C3220E738469B
:20674000FFF70CF9A7F89C8297F87432002B00F02D833B6F07F51D729342F0D0C02119704D
:206760003B6F01333B67934200F00C83002119703B6F384601333B674FF0010B0091FFF7CB
:20678000EDF800994FF4067287F838B007F5956011F0F0FF87F8B6B4381D4FF4A06105F001
:2067A000C7FE40F2E323A7F89C32E3E5C01C002096390020502200203846FFF7CFF840F2BD
:2067C0002123A7F89C3297F87432002B3FF433AE3A6F07F51D739A4297F89812ECD011700D
:2067E0003B6F384601333B6707F1040BFFF7B6F858464FF4A06105F09BFE4FF4067207F5C9
:206800009560002111F0B6FF40F22A220123A7F89C2287F8B63497F89932012B05D058464B
:2068200005F09AFE00283FF406AE584605F094FE4FF4067207F59560002111F09BFF01220C
:20684000002387F8B62487F86A300023A7F89C329DF8071023E495F87432BE4EB5F8A422AE
:20686000012B3560A5F854277FF40AAC0023A5F89C322F467EE495F86030B64E0A2B3560C6
:206880007FF403AC95F87422012A40F0DA800022A5F89C22AA465AE695F87432AD4E012BF7
:2068A00035607FF4F7AB95F86030092B7FF4F2AB0022A5F89C222F4644E595F87432A54E8C
:2068C000012B35607FF4EBAB95F86030092B7FF4E6AB0022A5F89C222F4667E595F8743228
:2068E0009C4E012B35607FF4DFAB95F86030092B7FF4DAAB0022A5F89C222F46B4E595F88F
:206900007432944E012B35607FF4D3AB95F86030092B7FF4CEAB0022A5F89C22B5E48D4B12
