:020000040000FA
:20000000005000207D0F0000750F00005D0F0000790F0000790F0000790F0000000000005C
:20002000000000000000000000000000790F0000790F000000000000790F0000790F0000A0
:20004000919A0000790F0000F1580100790F0000919000007D950000790F0000790F0000D8
:20006000790F000019590100790F0000790F0000790F0000790F0000790F0000790F000055
:20008000790F0000790F0000790F0000790F0000790F0000790F0000790F0000790F000020
:2000A000790F0000790F0000790F0000790F0000790F0000790F0000790F0000790F000000
:2000C000790F00006DAA0000294B1B689B0702D44FF000407047F0B5002083B0452108F086
:2000E00033FE0DF106010120022215F0B3F838B901A8022115F0D8F84FF0004003B0F0BD64
:200100000DF106010020022215F0A4F80028EFD0BDF806305BBA9CB2200BADF8043016F0B6
:2001200017FC15F0B9FF0646C4F30B000F4616F01FFC0DA3D3E9002304460D46304639464A
:2001400016F07CFC02460B462046294616F076FC16F00EFF074917F069F817F0B7F903B006
:20016000F0BD00BFAFF300807B14AE47E17A843F681B00200000C84208B51F4B1B68032BCA
:2001800033D1431E012B30D81C4A1D4B012812881B8812D0184616F0DBFB0022194B16F0EA
:2001A0004DFC0022184B16F049FC16F0E1FE174917F03CF817F08AF908BD104616F0C8FB38
:2001C0000022104B16F03AFC09A3D3E9002316F035FC00220E4B16F07DFA16F0C9FE0B498B
:2001E00017F024F817F072F908BD4FF0004008BD0000000000A064408C1B0020C836002038
:20020000CA3600200000F03E000059400000C84200004440000000002DE9F041664B1B68EE
:200220004BB1664B002210F0380604461A609A8006D142073ED14FF000463046BDE8F08193
:2002400008F096FE5E4D286007E008F091FE2A686FF009039B1AC34203D507F0C7FC002800
:20026000F3D0584B1B78D907E5D5544D0120682108F06AFD29463B20062214F0EBFF064615
:200280000020014608F060FD002E7ED02F786E78A878E9782A796B79202C6F702E70E87070
:2002A000A9706A712B715AD0102C65D0082C66D00026C2E708F05CFE414D286007E008F093
:2002C00057FE2A686FF009039B1AC34203D507F08DFC0028F3D03B4B1B78DB07ABD5374DD0
:2002E0000120682108F030FD29464320062214F0B1FF074600284DD095F8008095F801C094
:2003000095F802E0EF782A796B790020014685F8018085F800C085F803E0AF706A712B71E8
:2003200008F012FD042C06D0022C2BD0012C84D1B5F9040001E0B5F9000016F019FB1CA3EB
:20034000D3E9002316F0A4FC16F012FE1E4916F06DFF17F0BBF806463046BDE8F081B5F9E9
:20036000000007F06DFB184916F060FF17F0AEF806463046BDE8F081B5F90200F1E7B5F99D
:200380000400EEE7B5F90200D7E72846062114F08BFF50E72846062114F086FF38463946A1
:2003A00008F0D2FC4FF0004647E700BFAFF300800000000000606040BC1B0020941B00201D
:2003C000F0380020ED3600200000C842000000002DE9F04F144623F00047024657EA0400F2
:2003E0000E468FB01D469C46214634D06E4B26F0004A9A459346B14626DC24D09F4223DC1C
:20040000694B9F4200F08F80B9F1000FC0F28F804FF0000879BB644B9F4200F0A580634B00
:200420009F4267D0BCF1804F00F0E283604B9C4521D1B9F1000F1EDB104631460FB0BDE872
:20044000F04F15F0A9BF62B10AF1404000F5801050EA0B0007D10346544918460FB0BDE818
:20046000F08F5745CCDD53480FB0BDE8F04F16F091B84FF0000810463146CDF808C00092F8
:2004800016F050F8009ADDF808C0BBF1000F20D04FEAD97909F1FF3958EA09037AD0464B46
:2004A0009F4240F38F8003F104739F4240F31084424B9A4540F39283BCF1000F40F392834E
:2004C00037A1D1E900010B46024616F0B7FA0346C3E7BAF1000F04D0344B29F0404E9E45AF
:2004E000D6D1BCF1000FC0F2B683B9F1000F08DB0346B2E7BCF1000FC0F25284134631461C
:20050000ABE70AF1404A0AF5801A58EA0A0340F05E8402460B4616F0DDF80B46024616F0B7
:20052000B7FB034699E700293FF46EAF8CE7244B9F422CDCA3F154739F427FF769AF40F200
:2005400013403B15834240F34B84C3F58663033321FA03F000FA03F38B427FF459AF00F024
:200560000100C0F1020855E70AF1404303F5801353EA0B0300F03983104B9A4540F364832F
:20058000BCF1000FC0F22E832346294665E74FF002083FE7104631463346BCE7AFF300809E
:2005A0009C7500883CE4377E0000F07F0000F03F0000E03F108601000000E041FFFFEF3F2C
:2005C000FFFF3F43BAF5801F4FF0000205DACA4B16F034FA8A466FF034024FEA2A53C74EB4
:2005E000CAF3130AA3F2FF334AF07F571344B2450C9347F4401740F3D083C14B9A4540F327
:2006000007840026B4460C9BA7F5801701330C933946BC4B4FEACC0C6344D3E900AB524645
:200620005B46CDF834C0CDE9060116F053F852465B46CDE90801DDE9060116F04DF80246FA
:200640000B460020B04916F023FB02460B46DDE90801CDE90A2316F0F1F902460B46CDE982
:200660000223CDE904237B1043F0005303F5002399190020002306460F460293DDE9022336
:200680001046194632463B46CDE9000116F0D6F902460B46DDE9080116F01CF85246CDE950
:2006A00008015B463046394616F014F802460B46DDE9060116F00EF802460B46DDE90001B7
:2006C00016F0BCF902460B46DDE9080116F002F8DDE90A2316F0B2F9DDE90423CDE90601A9
:2006E0001046194616F0AAF902460B4606460F4616F0A4F96EA3D3E9002382468B463046C0
:20070000394616F09BF96CA3D3E9002315F0E4FF32463B4616F092F969A3D3E9002315F070
:20072000DBFF32463B4616F089F967A3D3E9002315F0D2FF32463B4616F080F964A3D3E964
:20074000002315F0C9FF32463B4616F077F962A3D3E9002315F0C0FF02460B4650465946C4
:2007600016F06CF9DDE9042306460F46DDE9000115F0B2FFDDE9062316F060F932463B46BC
:2007800015F0AAFFDDE9006782468B4632463B463046394616F052F900225C4BCDE908011E
:2007A00015F09AFF52465B4615F096FF02980F460646DDE9000132463B4616F03FF9324617
:2007C0003B46CDE90001DDE9060116F037F90022CDE906014D4B3046394615F07BFFDDE92D
:2007E000082315F077FF02460B465046594615F071FFDDE9042316F021F902460B46DDE9A4
:20080000060115F069FF82468B46DDE9000152465B4615F061FF32A3D3E9002302980F46C3
:20082000064616F00BF930A3D3E90023CDE904013046394616F002F9DDE90023CDE9060159
:200840003046394615F046FF02460B465046594615F040FF26A3D3E9002316F0EFF802466A
:200860000B46DDE9060115F037FFDDF834C0284BCDF818C06344D3E9002315F02DFFCDE9D9
:2008800000010C9816F074F806460F46DDE90401204BDDF818C09C44DDE90023DCE900AB84
:2008A00015F01AFF52465B4636E000BFAFF30080EF4E454A287ECA3F65DBC9934A86CD3FF7
:2008C00001411DA96074D13F4D268F515555D53FFFAB6FDBB66DDB3F033333333333E33FC6
:2008E000000000E009C7EE3FF5015B14E02F3EBEFD033ADC09C7EE3F000040438E980300EC
:2009000079B60B00908001000000F03F000008408080010070800100CDE906AB15F0DCFEDD
:2009200032463B4615F0D8FE029832463B4682468B4615F0CFFEDDE9062315F0CBFEDDE962
:20094000042315F0C7FE02460B46DDE9000115F0C1FECDE9020108F1FF3858EA09030CBF80
:20096000D54BD64B0022CDE904230023CDE900450093DDE90067204632463B46294615F086
:20098000A9FE52465B4616F059F8DDE90223804689462046294616F051F802460B4640465D
:2009A000494615F099FE04460D465246304639465B46CDE9024516F041F806460F462046FE
:2009C0003B462946324615F087FEBD4B824699428946884640F3138101F13F4303F5E003C7
:2009E000034340F0E581A0A3D3E90023DDE9020115F072FE324604460D463B465046494600
:200A000015F068FE02460B462046294616F0A6FA002840F0CD814C462015A0F2FE304FF4E7
:200A2000801101414144C1F30A50A64CA0F2FF35C1F3130BC0F5826003302C414BF4801BB5
:200A400021EA040300224BFA00FB3946304615F041FE06460F46DDE902018BEAE87B0BEBB1
:200A6000D87B32463B464FEA0B5A15F035FE80A3D3E90023002420460D4615F0DFFF32461A
:200A8000804689463B462046294615F023FE02460B46DDE9020115F01DFE77A3D3E90023CA
:200AA00015F0CCFF76A3D3E9002306460F462046294615F0C3FF02460B463046394615F09E
:200AC0000BFE06460F4632463B464046494615F003FE42464B4604460D4615F0FBFD02465D
:200AE0000B463046394615F0F5FD2246804689462B462046294615F0A1FF63A3D3E90023EC
:200B000006460F4615F09AFF61A3D3E9002315F0E1FD32463B4615F091FF5FA3D3E9002361
:200B200015F0DAFD32463B4615F088FF5CA3D3E9002315F0CFFD32463B4615F07FFF5AA32C
:200B4000D3E9002315F0C8FD32463B4615F076FF02460B462046294615F0BCFD06460F46AC
:200B600032463B462046294615F068FF0022CDE900014FF080433046394615F0ABFD024676
:200B80000B46DDE9000116F083F8424606460F464B462046294615F051FF42464B4615F0BA
:200BA0009BFD02460B463046394615F093FD22462B4615F08FFD02460B4600203F4915F0CA
:200BC00089FD8A44BAF5801F0246C0F227815346DDE9040115F032FF03463EE4BCF1000F10
:200BE000FFF66EAC0023194637E40B46334934E433461046314615F021FF03462DE4324B22
:200C000021F000449C4240F3FA80304B0B4403430CD132463B4615F05DFD02460B46DDE950
:200C2000020116F087F900283FF4F6AE20A3D3E90023DDE9040115F001FF1DA3D3E900231B
:200C400015F0FCFE034608E4BCF1000FCADA234605F1004101E402460B460020174916F05C
:200C600017F842E4AFF30080FE822B654715973C00000000432EE63FEF39FAFE422EE63F93
:200C8000396CA80C615C20BED0A4BE726937663EF16BD2C541BDBB3E2CDE25AF6A56113FA0
:200CA00093BDBE166CC1663F3E5555555555C53F59F3F8C21F6EA5010000F0BF0000F03F3C
:200CC000FFFF8F40FFFF0F00FFCB904000346F3F634B9A4582DD634B9A453FF7EDAB002255
:200CE000604B15F0F7FC54A3D3E9002306460F4615F0A4FE52A3D3E90023CDE90001304632
:200D0000394615F09BFE3246CDE902013B463046394615F093FE002282468B4630463946C9
:200D2000514B15F08BFE02460B4647A1D1E9000115F0D0FC32463B4615F080FE02460B4667
:200D400000204A4915F0C6FC02460B465046594615F074FE3EA3D3E9002315F06FFE02465A
:200D60000B46DDE9020115F0B5FC06460F46DDE9000132463B4615F0AFFCDDE90023002089
:200D800082468B4615F0A6FC02460B463046394615F0A0FCCDE90201DDE50026B44637E42E
:200DA000334600202F4915F073FF0346FFF755BB29A3D3E90023DDE9040115F03FFE26A3DB
:200DC000D3E9002315F03AFE0346FFF746BBB8F1010F03467FF441AB01F10041FFF73DBB35
:200DE00000297FF446ABC3F58263033347FA03F000FA03F3BB4217D08846FFF710BB1B4B96
:200E00009C423FF709AEDDE90023924693462EE64FF480264FF0010CFFF7FABB5A4600F0E9
:200E200027F802460B46D3E600F00100C0F10208FFF7F5BAAFF30080000000604715F73FDC
:200E400044DF5DF80BAE543E555555555555D53FFE822B654715F73F9C7500883CE4377EAD
:200E6000FEFFEF3F0000F03F0000D03F0000E03FF8B5C1F30A5604460D460B46174616BB0D
:200E800021F00043034332D00022314B15F0D6FD304A044697420D460B4637DB40F2FE724B
:200EA000C1F30A56363E3E44964215DD24A1D1E9000122462B4615F001FC21A3D3E9002360
:200EC00015F0BCFDF8BD40F2FF72964224D040F2FE723E449642E9DC002E09DD23F0FF4306
:200EE00023F4E00343EA065520462946F8BDF8BD16F1350F15DA4CF250339F42D6DC12A1F0
:200F0000D1E9000122462B4615F0D8FB0EA3D3E9002315F093FDF8BD02460B4615F0DCFB16
:200F2000F8BD23F0FF4323F4E003363643EA0655204629460022084B15F080FDF8BD00BF79
:200F40009C7500883CE4377E59F3F8C21F6EA50100005043B03CFFFF0000903C044B1A68D0
:200F6000B2F5806F03D01B689B0500D4FEE7704728ED00E0FEE700BFFEE700BF08B512F079
:200F8000DDF8104A104B9A420DD2D0430F4918440B4620F003000430084453F8041B834232
:200FA00042F8041BF9D10A480A494FF000028842B8BF40F8042BFADB06F00AF8FFF7CEFFF0
:200FC00008BD00BF000000205E0A0020E5950100600A00201C430020022006F0D7B900BFFA
:200FE0002DE9F04109F052FC344CC0F30A00637F00F52065002B37D1314C637F3BB92946D5
:20100000BDE8F0412F48304A00230AF04DBB2F4B02205B689847B0F1004F0746EFD0C0EBFF
:201020004013002600EB83035B1104F11F000C21274AE67784F8206084F8216084F8226054
:2010400084F8236084F8246084F8256084F8266084F8276084F8286084F8296084F82A607C
:20106000676009F06FFDCAE7184B01205B689847B0F1004F0746BFD0002603460C2104F110
:201080001F00134AE67784F8206084F8216084F8226084F8236084F8246084F8256084F804
:2010A000266084F8276084F8286084F8296084F82A60676009F046FD9EE700BFB806002073
:2010C000BC0400207C380020E10F00004C920100B8800100031E10B40EDB0A4AD81782FBC6
:2010E00003426424C0EB621204FB123308465DF8044B054909F062BD044A5B42128821F8CA
:20110000012BEAE71F85EB51C0800100BC8001002DE9F04107461B480E4690460AF060FEFB
:201120000446A0B16569284616F032FEB04208D1384616F02DFE39460246284616F080FE6F
:2011400040B120460AF0B2FE04460028EAD10020BDE8F081404616F0B7FC20B101280DD114
:201160006077BDE8F081084B607718689B88C4F81F00A4F823300120BDE8F0814FF0FF3046
:20118000BDE8F081AC0A0020C8800100094B82B05B7F13B9084B5B7F33B1084B81209B68E6
:2011A0000121019302B018470548064A802102B00AF07ABADC0500203406002088910100D5
:2011C0005C3800208D110000074B5B7F23B907488021074A0AF068BA064B82B09B68812031
:2011E0000121019302B018476404002038380020C9110000B8910100094B82B05B7F13B9C0
:20120000084B5B7F33B1084B81209B680121019302B018470548064A802102B00AF044BA17
:201220009004002084050020C8910100C0380020F9110000094B82B05B7F13B9084B5B7F7C
:2012400033B1084B81209B680121019302B018470548064A802102B00AF026BA8C06002070
:20126000B0050020989101001838002035120000144B82B05B7F13B9134B5B7FDBB1382362
:20128000124A527F12B9124A527F42B143F007031946104A81209368019302B018470E4AA7
:2012A000527F002AF2D1002BF2D10C480C4A802102B00AF0F9B90B4B5B7F002B14BF382350
:2012C0000023DDE70806002050050020E804002024050020E091010060060020A03800203F
:2012E000711200002804002008B50020FFF778FE0020FFF74BFF0020FFF766FF0020FFF7E5
:201300007BFF0020FFF796FFBDE808400020FFF7AFBF00BF10B504460DF0D4FF1022014620
:20132000204616F0DBFB18B90BF034FF014B186010BD00BFA00A002038B506F0B1FE90B37D
:2013400000204FF4807106F059FF28B319491A4C00234FF48072194884E80E000AF040FDDE
:201360000125034668B15A7F18462AB11A7FA36805FA02F21343A3600AF098FD03460028E3
:20138000F1D100204FF480710B4A06F0EBFE30B90B4807F01FFF02E00A4807F01BFFBDE8C8
:2013A000384006F0ADBE084807F014FFBDE8384006F0A6BE025026CC18370020AC0A0020FA
:2013C00008810100F4800100D08001000D2901D00020704710B514460A460A4916F006FD14
:2013E00008B1002010BD204616F06EFB064B421F9A4204D8054BC001D860012010BD4FF092
:20140000FF3010BD1C8101007B510100183700202DE9F0474FF0000A814688465746554693
:20142000561C0AE0BAF1000F26DB31D00AF1010A0237102F06F102061BD016F8014C337826
:2014400003EB0424A4B2002CECD0BAF1000F13DD4FF0FF3A09EB0500C5EB08012346124A9F
:2014600009F070FB02372844102FC5B206F10206E3D12846BDE8F087002FEBD009EB05008D
:20148000C5EB0801094A09F05DFB2844C5B2E1E709EB0500C5EB0801054A09F053FB284490
:2014A000C5B24FF0010AC3E734810100308101002C81010001480AF093BC00BFAC0A002084
:2014C00010B5032005F058FF0B480AF089FC012420B144770AF0EAFC0028FAD1074B0848E0
:2014E000197800220AF08AFBFFF726FFBDE81040032005F04BBF00BFAC0A00209C380020FF
:201500000C0700202DE9F04F0688C5B004460F469046EEB140F2DD339E4213D1882F00F07F
:2015200074826D4B1B78BB4200F024816B4B1B78BB4200F08C8240F2DD330120238045B099
:20154000BDE8F08F00230380032045B0BDE8F08F634807F03FFE634863490AF043FC61486D
:2015600062490AF03FFC624B01219B68812098475C4860490AF036FC5A485F490AF032FC4E
:2015800058485E490AF02EFC56485D490AF02AFC54485C490AF026FC52485B490AF022FCC9
:2015A00050485A490AF01EFC4E4859490AF01AFC4C4858490AF016FC4A4857490AF012FC19
:2015C000484856490AF00EFC464855490AF00AFC444854490AF006FC534B01219B68812023
:2015E00098470AF069FA514BDFF8809118700AF063FA89F800000AF05FFA4D4B31461870E1
:201600004C480AF007FB4C4831460AF003FB4B4D4B4831460AF0FEFA4FF0FF324FF470631D
:20162000AA60EB6006F03CFD78B3304604AA4FF4807106F06DFD064606F062FD002E00F084
:20164000E081404B049A9A4200F0048225480AF0C7FB0346F0B1DFF818A1012605E05E772A
:2016600018460AF023FC0346A0B11A7FA96806FA02F20A40F3D1DAF80000BAF804105A7744
:20168000C3F81F00A3F82310EAE72F4807F0A2FD06F036FD002099F8001002460AF08EFA10
:2016A000FFF722FE294803F0B1FC294803F0AEFC284803F0ABFC284B4FF0006227482849F7
:2016C0001A600DF0F9FF274810210AF003F9264810210AF0FFF821E7184300201643002079
:2016E00038810100AC0A0020B8060020BC0400204C920100DC05002034060020B00500208D
:201700008C060020640400209004002084050020080600205005002028040020E804002037
:20172000240500206006002028920100143700209C38002088070020E40600201837002098
:201740000C070020025026CC50810100140500207C0500201C050020A00A0020A40A00208D
:2017600015130000D00A0020900A002058380020C8800100BC4B984500F0BC81BB4B1B78EA
:20178000BB4200F06481BA4DA84500F0C181B94B984500F0D881B84DA84500F01B82B74DA4
:2017A000A84500F02E82B64DA8457FF4C4AE09F06DF8DFF8D8A2C0F30A009AF81D3000F587
:2017C00020620392002B40F00984DFF8C88298F81D30002B40F01584AA4F7B7F002B40F0CA
:2017E0000784A94E737F002B40F0F083DFF8B4B29BF81D30002B40F0E083DFF8B09299F822
:201800001D30002B40F0D083AB680021812098479AF81D109D4B21B39968586881420CBF4F
:2018200000210121997718BF9860002398498AF81F308AF820308AF821308AF822308AF8B6
:2018400023308AF824308AF825308AF826308AF827308AF828308AF829308AF82A30FFF750
:2018600039FC98F81D108B4B21B39968586881420CBF00210121997718BF98600023864969
:2018800088F81F3088F8203088F8213088F8223088F8233088F8243088F8253088F82630B4
:2018A00088F8273088F8283088F8293088F82A30FFF710FC797F734B19B3996858688142BE
:2018C0000CBF00210121997718BF986000237349FB7787F8203087F8213087F8223087F8DB
:2018E000233087F8243087F8253087F8263087F8273087F8283087F8293087F82A30FFF7C5
:20190000E9FB717F604B19B39968586881420CBF00210121997718BF986000236049F377D5
:2019200086F8203086F8213086F8223086F8233086F8243086F8253086F8263086F827301B
:2019400086F8283086F8293086F82A30FFF7C2FB9BF81D10534B21B39968586881420CBFCE
:2019600000210121997718BF98604F4900238BF81F308BF820308BF821308BF822308BF8B9
:2019800023308BF824308BF825308BF826308BF827308BF828308BF829308BF82A30FFF708
:2019A00099FB99F81D10414B21B39968586881420CBF00210121997718BF986000233C495C
:2019C00089F81F3089F8203089F8213089F8223089F8233089F8243089F8253089F826306B
:2019E00089F8273089F8283089F8293089F82A30FFF770FB03992F482F4A002309F054FE26
:201A000099E52E4807F0E6FB44E62D4809F080FF00285BD12B4809F07BFF00283FF481AD20
:201A200001200CF07BFF002800F0CC8101200CF075FF30B10DF046FC8021002214230DF002
:201A4000F9FD214B1F48D96809F044FF69E5FFF773FC70E5059AB2F5807F7FF4F7AD04A92F
:201A6000284616F06DF8F1E5009201001643002088910100B8910100C891010098910100C3
:201A8000E09101006006002008060020E80400200705002024050020430500207F06002092
:201AA00027060020500500206F0500202804002047040020A03800207112000074810100A8
:201AC000900A0020D00A00201837002001200CF025FF054600289DD1022005F04DFC2B46F0
:201AE000BB480821BB4A09F0DFFDBB48102109F0F1FE8FE7D8F8043001209847B0F5207F06
:201B000040F31A81B54807F065FBFFF7D9FC12E508F0BCFEB24EC0F30A00737F00F5206704
:201B2000002B40F0CB81AF4E737F002B40F00E81AB680021812098473946AB48AB4A0023E7
:201B400009F0B2FDF7E408F0A1FED8F80430C0F30A0700209847B0F1004F07F5206732D02F
:201B6000A34DA449AB6881FB002198420CBF00230123AB774FEAE0734FF06402C3EB611377
:201B8000686018BFA86002FB1300002600900C2199489A4AEE7785F8206085F8216085F809
:201BA000226085F8236085F8246085F8256085F8266085F8276085F8286085F8296085F811
:201BC0002A6008F0BFFF39468D488E4A002309F06BFDB0E408F05AFE8B4EC0F30A00737FA9
:201BE00000F52068002B40F0A581884E737F002B40F02A8141468648864A002309F054FD87
:201C000099E408F043FE844FC0F30A007B7F00F52068824E1BB9737F002B00F08180D5F888
:201C200004A00320D047B0F1004FDFF8189200F0F2817B7FDFF8E091002B39D00220D04743
:201C40007749D9F8083081FB002198420CBF0023012389F81E304FEAE0734FF47A72C3EBFA
:201C6000A113C9F8040018BFC9F8080002FB13004FF0000E00900C216A486B4A87F81FE04C
:201C800087F820E087F821E087F822E087F823E087F824E087F825E087F826E087F827E030
:201CA00087F828E087F829E087F82AE008F04AFF737F002B34D06B6801209847B268574B9B
:201CC000904257490CBF002201229A7781FB002118BF9860C3174FF47A72C3EBA1137060CA
:201CE00002FB1300002700900C2150484E4AF77786F8207086F8217086F8227086F8237014
:201D000086F8247086F8257086F8267086F8277086F8287086F8297086F82A7008F012FF27
:201D2000AB6800218120984741464148414A002309F0BAFCFFF7FFBBFFF7D6FA3E4B002063
:201D40001978024609F03AFFFFF7F5BB6B6801209847B0F1004F3FF4EBAE2649B36881FB3D
:201D6000002198420CBF00230123B3774FEAE073C3EB61134FF06402706018BFB06002FB25
:201D800013004FF0000E00900C211C4A86F81FE086F820E086F821E086F822E086F823E045
:201DA00086F824E086F825E086F826E086F827E086F828E086F829E086F82AE01F4808F021
:201DC000C1FEB5E61E48102109F084FDFFF7A9BBB00A0020D90F0000900A00208C810100B4
:201DE000DC050020340600205C3800208D110000640400201F85EB5183040020C0800100E6
:201E000038380020C91100008405002090040020C0380020F91100008C060020B005002052
:201E2000D34D6210AB060020A0810100CF050020183800203512000014370020530600208E
:201E4000D00A0020989101006B6802209847B0F1004F3FF4CFAE7649B36881FB0021984299
:201E60000CBF00230123B3774FEAE073C3EB61134FF06402706018BFB06002FB13000025E7
:201E800000900C216B4AF57786F8205086F8215086F8225086F8235086F8245086F82550C1
:201EA00086F8265086F8275086F8285086F8295086F82A50604808F045FE9BE66B680220FB
:201EC0009847B0F1004F3FF42EAE5949B36881FB002198420CBF00230123B3774FEAE07328
:201EE000C3EB61134FF06402706018BFB06002FB13004FF0000E00900C214E4A86F81FE035
:201F000086F820E086F821E086F822E086F823E086F824E086F825E086F826E086F827E0B5
:201F200086F828E086F829E086F82AE0434808F009FEF8E56B6801209847B0F1004F3FF4AF
:201F400054AE3B49B36881FB002198420CBF00230123B3774FEAE073C3EB61134FF06402DA
:201F6000706018BFB06002FB1300002700900C21304AF77786F8207086F8217086F82270A1
:201F800086F8237086F8247086F8257086F8267086F8277086F8287086F8297086F82A709D
:201FA000274808F0CFFD20E66B6808209847B0F1004F18BFC9F8040026E46B681020984796
:201FC000B0F1004F18BFCBF8040016E46B6820209847B0F1004F18BF706007E46B6804200E
:201FE0009847B0F1004F18BFCAF80400FFF7EDBB6B6801209847B0F1004F18BF7860FFF76F
:20200000F0BB6B6802209847B0F1004F18BFC8F80400FFF7E1BBD9F808300021812098477A
:2020200008484146084A002309F03EFB01E600BF1F85EB51C0800100AF040020FB05002068
:20204000A30500201838002035120000082901D00020704708B50A46044915F0C7FE08B14B
:20206000002008BDFFF72CFA012008BDA88101002DE9F04F04888BB00546B4B1B72C0ED1C1
:2020800068480E4609F044FC50BB674B1B78B3421CD0B7232B8001200BB0BDE8F08F00232A
:2020A000038003200BB0BDE8F08F604807F092F85F4B5C481C605C609C60DC604FF4F05130
:2020C00009F008FCB7232B800120E5E7594B1B789B07DED5584B594A1B881268D054D8E7BF
:2020E00001200CF01BFC044600286AD00EF0FEFF002866D02346064653F8020F4C4C59683D
:202100009A68DB684E4F0FC456F8080FD7F800807168A4F1080303C3B8F1000F76D0404693
:20212000A4F11001102215F0D9FC002861D1454C68462368444901331A46236008F03EFDF2
:2021400082460EF0D3FF50B3036AD3F8904034B34FF0000B5E46DFF8FC90DFF8FC80EA4423
:202160000AE0BBF1000F32DB38D00BF1010B0236102E04F102041CD02279637903EB0222B7
:2021800092B2002AEDD0BBF1000FC8BF4FF0FF3B1DDD50462D4908F011FD8244E7E72C4B42
:2021A0000DEB0A02186899889B794DF80A0091809371684615F0ECFD6946024638680EF0D1
:2021C00059FA18484FF4F05109F084FB61E7002EDFD0B9F800302AF8013BDAE7B8F800205B
:2021E00098F80230AAF800204FF0010B0AF8023FBDE70022A4F11000A8F810204BF60B0145
:202200000DF072FD38600028DBD090E7A4F1100042464BF60B010DF067FD38600028D0D035
:2022200085E700BFF80A00201A430020C4830100E00A00208C3C0020F4380020983C00205A
:20224000F00A0020F40A0020D8830100E0830100E8830100308101002C810100022005F0A3
:2022600095B800BF2DE9F84F40F25B78264C00212068F02215F03EFD2268244B244D03CB4B
:20228000106024681F889E782868224B95F806A0516017819672B5F804C0B3F804B02062B2
:2022A000997918681C4DDFF878E01C4E84F826A04FF02B094FF4206AC4F8800084F88610BA
:2022C000A4F824C00FCDA4F884B0C4F8A000C4F8A410C4F8A82003CDC4F8AC30C4F8B000AE
:2022E000C4F8B410BEE8030084F8E09020646164A4F8EC8007CEC4F8E8A020666166A2660A
:202300000120BDE8F88F00BFE0380020F0830100FC830100048401000C84010034840100B2
:2023200028840100F0B5244C244A236850799179177856789578D27989B003F1200E04906B
:2023400005910692CDF800E00197029603951C4840211C4A08F0F6FB3F281DD823681A4885
:20236000E0334021194A08F0EDFB3F281ED82368174880334021174A08F0E4FB3F2818D8BC
:2023800000231946144C154A15482380137009B0BDE8F04009F09EBA01461248402208F09F
:2023A000ABFB0E4BFE221A7009B0F0BD01460E48F4E701460D48F1E7E0380020C0420020C8
:2023C000B80B002044840100340B0020BC840100740B0020DC8C0100C0360020DA36002063
:2023E000080B00206884010084840100A0840100012938B525D014461AD3042917D1324AAB
:2024000094F84E30146013B1002384F84E30201D15F0BEFC80B21728A56CB4F8503001D1E1
:20242000012B1AD0BDE83840284806F0D3BE38BD27484FF4207109F045FC264B03221A70E0
:2024400038BD244B1A78062A06D005221A702248BDE8384009F0FEBB38BD04F117001F492D
:20246000042215F0EDFC00BB0E3420461C49042215F0E6FC78B120461A49042215F0E0FC7A
:202480000028E9D12B78312B18D0302BE4D1BDE8384005F05DBF2B78312B0AD0302BDBD155
:2024A000BDE83840012004F071BF0F4806F092FEDAE70120BDE8384004F05EBF4FF47A70A0
:2024C000BDE8384005F0F2BEB40B0020D48401002C0B0020DA3600200C070020FC840100C7
:2024E0001885010020850100048501002DE9F041048886B005462CB3B4F5627F1CD19B4C7D
:202500000E4623788B4242D0994B1B78B3424AD0882E27D0822E28D0964B1B78B34224D0B5
:202520002378B34278D0944B1B78B34278D04FF462732B80012002E000230380032006B0CF
:20254000BDE8F0818D4806F045FE8D4B8D4A1A60FFF788FE012800F0E88002202C8006B0AD
:20256000BDE8F081884B9A42D6D1884C2378032B5ED02CD9052B1ED05CD3062B00F08D81A3
:20258000FE2B40F09481824806F024FECBE7814B9A42B9D17D4B1978FF29B5D17E48012118
:2025A00001701970B0E778484FF42061059209F091F9059AACE7784F3B78042B40F28281DC
:2025C000FF2323707048402109F084F9ABE7012B00F0358100F252817048714F08F08CFA98
:2025E000DFF89C81202300936E4A6F4B38466F4904F0A2FBD8F8003093F8602093F84030D2
:20260000002A40F00181002B00F07081684806F0E1FDFF232370D5E75E4B9A4283D1A4E779
:20262000FFF720FE58484FF4206109F053F97EE7042323705F4809F059FB10B1564B002246
:202640001A70574890F86A70002FBBD190F86030092BB7D190F87432002BB3D023784B4C52
:20266000032B00F04781022004F086FE3B4652488021524A09F018F85149524B0A887B2015
:20268000DFF8808123F8010B0132C8F800300A80FEF710FF4C4C03462060002800F03F8151
:2026A00040F2FF17D8F800005A7FD2B1596803F11F0EB1F1004F454A13D0D3F80CC09B69C6
:2026C00039460093CDF804E0634608F03BFA021E1CDB97421ADDD8F80000BF1A1044C8F8C5
:2026E000000023681B682360002BDDD1D8F80030013F013B364A18463946C8F8003008F0AF
:2027000021FA021E02DB974200F3FC803946314808F0F2F91A4B1C481B68D3F8E81009F076
:20272000D9F82D4806F056FDFDE62C4802F06EFC2B4802F06BFC2B4802F068FC2A4802F05E
:2027400065FC2A4802F062FC294802F05FFC294802F05CFC284802F059FC284802F056FC72
:20276000274802F053FCFFF7DDFDE0E61843002016430020143700209C3800202885010012
:20278000E038002028370020080B0020DA3600206086010028920100DB3600204485010082
:2027A0001C0C0020B80B0020F12300000C070020948501002C0B0020F80B00205D22000094
:2027C000C03600207C130020180B002014860100508601002486010054860100F4060020DF
:2027E000FC0600202C07002004070020340700204C070020240700201C0700204407002072
:202800003C070020180C0020002B3FF4FFAE454808F072F9D8F80020384602F140016032E2
:2028200004F086FB404ADFF804E100230120136053609360D3607B758EF800002070012026
:202840000CF06CF8A8B1394B3948197808F054F9384B39481A68D2F8E83002F1A00103EBFA
:2028600043039BB2B2F8EC2004F0A8FA38B3FE2323703248102109F02DF854E6022004F0C1
:202880007BFD2F4810212F4A002308F00DFF274B2D48197808F030F994E6274B93F86030D8
:2028A00013F0FB0F7FF48EAEFFF73CFD3BE6022004F062FD2178254808F01EF933E6022344
:2028C0002370D6E71C4804F0ADFA3B781B480133DBB2022B9ABF4FF4807199404FF400619B
:2028E0003B7008F0F7FF012323701CE6184806F071FC97E73B463946164A04F0A5FA04232B
:20290000237007E7144815F043FA00218DE803000291124A104B084804F0CAFAFAE640F29B
:20292000FF17E3E6C48501001C0B0020DB360020E0850100E03800201C0C0020080B0020DD
:20294000F80B00205D22000000860100748601004C850100340B00207C130020740B0020D4
:2029600008B5054B062205481A7008F0EDFFBDE80840034804F056BADA360020080B0020C8
:202980001C0C0020062901D00020704770B515460A4611491C4615F029FA58B9202C0DDD1D
:2029A0004FF0FF340D4B1B78062B05D0FFF7D8FF204670BD002070BD204670BD084E0146D7
:2029C0002022306815F096F922463068294615F0B7F80124E6E700BF90860100DA3600206E
:2029E000E0380020072901D00020704770B514460A4612491D4615F0F9F958B9202D0DDDFB
:202A00004FF0FF340E4B1B78062B05D0FFF7A8FF204670BD002070BD204670BD094B2022AC
:202A20001E6801461644304615F064F9214630462A4615F085F80124E4E700BF98860100FA
:202A4000DA360020E03800200D2901D00020704770B514460A4612491D4615F0C7F958B9CD
:202A6000202D0DDD4FF0FF340E4B1B78062B05D0FFF776FF204670BD002070BD204670BDDD
:202A8000094B01461E6820228036304615F032F9214630462A4615F053F80124E4E700BF2B
:202AA000A0860100DA360020E0380020082901D00020704738B515460A4617491C4615F04F
:202AC00095F958B9082C0DDD4FF0FF34134B1B78062B05D0FFF744FF204638BD002038BD27
:202AE000204638BD0E4B22461B68294683F8E00083F8E10083F8E20083F8E30083F8E400F7
:202B000083F8E50083F8E60083F8E70003F1E00015F016F80124D9E7B0860100DA3600205F
:202B2000E0380020082901D00020704770B514460A4612491D4615F059F958B9202D0DDD58
:202B40004FF0FF340E4B1B78062B05D0FFF708FF204670BD002070BD204670BD094B014606
:202B60001E6820224036304615F0C4F8214630462A4614F0E5FF0124E4E700BFBC860100B9
:202B8000DA360020E0380020082901D00020704770B514460A4612491D4615F027F958B931
:202BA000202D0DDD4FF0FF340E4B1B78062B05D0FFF7D6FE204670BD002070BD204670BD3D
:202BC000094B01461E6820226036304615F092F8214630462A4614F0B3FF0124E4E700BF45
:202BE000C8860100DA360020E0380020092901D00020704708B50A46074915F0F7F838B902
:202C0000064B1B78062B05D0FFF7AAFE012008BD002008BD012008BDD4860100DA360020F0
:202C2000092901D000207047F0B5154685B00A4614491E4615F0DAF8074660B9402E0CDDE0
:202C40004FF0FF34104B1B78062B01D0FFF788FE204605B0F0BD0020FBE7284669460DF0B2
:202C60009DFC01280446EBD1084B39461F684022A037384615F03EF838462946324614F0D8
:202C80005FFFDFE7E0860100DA360020E03800200B2901D00020704710B514460A460F499E
:202CA00015F0A4F808B1002010BD204614F00CFF4FF6FE73421E9A420DD8094B094A1B7847
:202CC0001268062BA2F8EC0003D0FFF749FE012010BD012010BD4FF0FF3010BDEC86010029
:202CE000DA360020E0380020082901D00020704710B514460A460B4915F078F808B1002082
:202D000010BD204614F0E0FE074B421F9A4206D8064AC30112680120C2F8E83010BD4FF0A4
:202D2000FF3010BDF88601007B510100E0380020F8B50D46044600211848802214F0DAFFC9
:202D40004DB322783AB3611900230134134D144F09E08C42EA5403F1010317D07E2B15D8ED
:202D600014F8012B92B1222AF3D1DA1D802A05EB030E0BD83868BE88BA798C42E85003F130
:202D80000603AEF804608EF80620E7D1002385F87F300248F8BD014DF8E700BFB419002095
:202DA000A08801000CB4F0B5B0F8303183B0B3F5BC7F04460D463FD0B3F5C17F2FD043B1DF
:202DC00000230320A4F8303103B0BDE8F04002B0704709AF00F180063B468121089A304655
:202DE000019707F0CBFED4F854310246C1187F29C4F8740144DCE018314614F0A1FED4F832
:202E00005421D4F874311A44C4F85421002DD7D0002AD5DD4FF4C173A4F8303101E0D0F870
:202E2000542104F5987021460CF0B8FD01283BD90023C4F85431C3E7D0F8542104F598707B
:202E400021460CF0ABFD01282ED9D4F87831D4F8742100219342C4F85411B1DA03F180014A
:202E6000D21A2144204614F06BFED4F87431D4F87811D4F854215B1A1A44C4F85421C5E777
:202E8000C3F180023146E01814F05AFED4F8543180214FF4BC70CB1A0A46C4F87831C4F87A
:202EA0005411A4F83001C9E7002003B0BDE8F04002B0704770B5044640F29D10B4F8AA314A
:202EC00082B0834269D0B3F5CF7F80F08880B3F5C97F0E46154624D000F2C680B3F5C87F9A
:202EE00007D012D8002B40F0F4804FF4C873A4F8AA31204600217D4AFFF754FF012840F25B
:202F0000C08040F29113A4F8AA3120460021784AFFF748FF012840F2B4804FF4C973A4F8F4
:202F2000AA3120460021734AFFF73CFF012840F2A8804FF4CA73A4F8AA31324620460021C8
:202F4000FFF730FF012840F29C8040F29513A4F8AA3120460021684AFFF724FF012840F2D7
:202F60009080B5B1C4F858512B6893B140F29913A4F8AA312A6820460021FFF713FF012800
:202F80007FD9D4F858510435C4F858512B68002BECD140F29D13A4F8AA3120460021574ACA
:202FA000FFF700FF01286CD94FF4CF73A4F8AA3120460021524AFFF7F5FE012861D940F211
:202FC0009F13A4F8AA31204600214E4AFFF7EAFE012856D940F2A313A4F8AA310EE0B3F57E
:202FE000D47F7FD050D840F29F129342EBD0B3F5CF7FDDD940F2A31293426AD1204600216A
:20300000414AFFF7CFFE01283BD9404808F0E8FE02464FF4D473C4F86001A4F8AA3153689E
:203020009268204600920021394AFFF7BBFE012827D9D4F860311A68C4F8602192B340F28F
:20304000AD13A4F8AA3153689268204600920021304AFFF7A7FE012813D9D4F860311B6861
:203060001A46C4F86031E9E740F2951293423FF470AF40F29912934231D0B3F5CA7F28D136
:203080005BE7002002B070BDB3F5D97F0ED040F2B512934216D040F2AD12934219D1D4F8E1
:2030A0006021D0E74FF4D973A4F8AA3120460021194A1A4BFFF776FE0128E2D940F2B5133B
:2030C000A4F8AA3120460021154AFFF76BFE0128D7D900230320A4F8AA3102B070BDD4F8F3
:2030E000585147E7D4F8602199E700BF90880100B8870100C8870100288801005C8701002F
:203100002088010018870100A888010048160020B4880100CC880100E88801007C15002003
:20312000F088010040F2FA2230B5B0F8A83183B09342044600F02F8222D840F2C322934289
:2031400000F05D81B3F5317F3CD2B3F52B7F00F0F58040F2AF8040F2B522934200F01581BF
:2031600040F2F083B3F52F7F00F02D81B3F5307F00F0368140F2BA22934240F0A28311E18E
:20318000B3F54B7F00F0FA823BD8B3F5447F00F095827DD940F21F32934200F0B982B3F54B
:2031A000487FC0F0DA8340F22532934200F0CC82B3F54A7F00F0D58240F22232934240F05C
:2031C0008083B4E240F2DF22934200F07D81B3F5387F48D340F2E922934200F0A28140F28F
:2031E0009C8340F2F222934200F0B78140F2F722934200F0BF8140F2EF22934240F06183F1
:203200009CE140F24232934200F0128316D940F24932934200F02D8340F26C8340F24D324E
:20322000934200F03C8340F24F32934200F0428340F24B32934240F0448325E340F23632B0
:20324000934200F0C68240F25D83B3F54F7F00F0D782B3F5507F00F0DE8240F23A32934256
:2032600040F02F83C1E240F2D122934200F0F28040F25E83B3F5367F00F0088140F2DB2255
:20328000934200F01481B3F5357F40F01A83F0E040F20632934200F0A78100F2208340F2BD
:2032A000FE22934200F0848140F20132934200F08E8106E340F2A322934200F05F83B3F5BC
:2032C000297F80F00783002B00F05A8340F29F22934240F0F682D94D2046A968D84AFFF72F
:2032E000E9FD012840F2F38240F2A323A4F8A83120460021D34AAB68FFF754FD012840F252
:20330000E6824FF42A73A4F8A8316B6820460021CD4AFFF747FD012840F2D98240F2AA2390
:20332000A4F8A83120460021C84AFFF73BFD012840F2CD824FF42B73A4F8A83120460021CA
:20334000C34AFFF72FFD012840F2C18240F2AE23A4F8A83120460021BE4AFFF723FD01285A
:2033600040F2B58240F2B223A4F8A831BA4B204600930021B94ABA4BFFF714FD012840F2DF
:20338000A68240F2B523A4F8A83120460021B54AB54BFFF707FD012840F2998240F2BA2381
:2033A000A4F8A8312021B148FFF7C2FC00210346AF4A2046FFF7F6FC012840F288824FF451
:2033C0002F73A4F8A83120460021AA4AA24BFFF7E9FC012840F27B824FF43073A4F8A831E0
:2033E0009D4B204600930021A34A9D4BFFF7DAFC012840F26C8240F2C323A4F8A8312046EE
:203400000021984A984BFFF7CDFC012840F25F824FF43273A4F8A83120219848FFF788FCD3
:2034200000210346924A2046FFF7BCFC012840F24E8240F2CA23A4F8A83120460021904A12
:20344000854BFFF7AFFC012840F2418240F2D123A4F8A831804B204600930021894A804BBF
:20346000FFF7A0FC012840F232824FF43573A4F8A831204600217B4A7B4BFFF793FC01288B
:2034800040F225824FF43673A4F8A83101217E48FFF74EFC00210346754A2046FFF782FCC7
:2034A000012840F2148240F2DB23A4F8A83120460021764A684BFFF775FC012840F2078231
:2034C00040F2DF23A4F8A831634B2046009300216F4A634BFFF766FC012840F2F88140F2B6
:2034E000E223A4F8A831204600215E4A5E4BFFF759FC012840F2EB8140F2E623A4F8A831B8
:2035000001216148FFF714FC00210346584A2046FFF748FC012840F2DA8140F2E923A4F89E
:20352000A831204600215B4A4B4BFFF73BFC012840F2CD8140F2EF23A4F8A831464B20466A
:2035400000930021544A464BFFF72CFC012840F2BE8140F2F223A4F8A83120460021414A02
:20356000414BFFF71FFC012840F2B18140F2F723A4F8A83108214948FFF7DAFB0021034671
:203580003B4A2046FFF70EFC012840F2A08140F2FA23A4F8A83120460021414A2E4BFFF77F
:2035A00001FC012840F2938140F2FE23A4F8A831294B2046009300213A4A294BFFF7F2FB6E
:2035C000012840F2848140F20133A4F8A83120460021244A244BFFF7E5FB012840F2778123
:2035E00040F20633A4F8A83120212F48FFF7A0FB002103461E4A2046FFF7D4FB012840F24A
:20360000668140F20933A4F8A83120460021274A114BFFF7C7FB012840F2598140F20D332D
:20362000A4F8A8310C4B204600930021204A0C4BFFF7B8FB012840F24A813BE0C007002012
:203640006C070020FC88010008890100288901004089010064890100D08701007C890100F8
:20366000488701008C8901002087010048370020A4890100B0890100C489010028370020E8
:20368000D0890100E4890100A0890100F4890100088A0100188A01002C8A0100083800206D
:2036A000408A0100548A0100A8370020688A0100808A01004FF44473A4F8A831204600216D
:2036C000B24AB34BFFF76EFB012840F2008140F21533A4F8A831AF4B2046D3F8F830002152
:2036E000DB09AD4AFFF75EFB012840F2F08040F21B33A4F8A83120460021A84AA84BFFF77E
:2037000051FB012840F2E38040F21F33A4F8A831A34B204600930021A24AA34BFFF742FB91
:20372000012840F2D48040F22233A4F8A831204600219E4A964BFFF735FB012840F2C780C6
:2037400040F22533A4F8A83120460021984A994BFFF728FB012840F2BA804FF44A73A4F8D3
:20376000A83120460021944A8D4BFFF71BFB012840F2AD804FF44B73A4F8A831884B2046F0
:20378000009300218D4A884BFFF70CFB012840F29E8040F22F33A4F8A831204600217B4A00
:2037A0007B4BFFF7FFFA012840F2918040F23233A4F8A831774B2046B3F8FC300021804AF2
:2037C000FFF7F0FA012840F2828040F23633A4F8A831204600217B4A714BFFF7E3FA012898
:2037E00075D940F23A33A4F8A83120460021764AFFF7D8FA01286AD94FF44F73A4F8A83172
:2038000020460021714AFFF7CDFA01285FD94FF45073A4F8A8316E4B20465B6800216D4A13
:20382000FFF7C0FA012852D940F24233A4F8A83120460021684AFFF7B5FA012847D94FF4FE
:203840005173A4F8A83120460021644AFFF7AAFA01283CD940F24633A4F8A831204600217B
:203860005F4AFFF79FFA012831D940F24933A4F8A831204600215B4AFFF794FA012826D9E2
:2038800040F24B33A4F8A83120460021564AFFF789FA01281BD940F24D33A4F8A8312046B9
:2038A00000214A4AFFF77EFA012810D940F24F33A4F8A831204601214C4AFFF773FA012800
:2038C00005D900230320A4F8A83103B030BD002003B030BDB3F52A7F4AD13D4D15E540F2CD
:2038E000093293423FF491AE40F20D3293423FF499AEE6E7B3F5517FA5D040F2463293424D
:20390000ACD0DEE740F22F3293423FF446AF40F2323293423FF44EAFD3E740F2E222934276
:203920003FF4E1AD40F2E62293423FF4E9ADC8E7B3F5327F3FF470AD40F2CA2293423FF470
:203940007CADBEE740F2AE2293423FF403AD40F2B22293423FF40AADB3E740F21532934232
:203960003FF4B9AE40F21B3293423FF4C4AEA8E740F2AA2293423FF4D5ACA2E7144DB7E419
:2039800040F29F23A0F8A831A5E400BF988A01002087010018370020B08A0100C08A0100BA
:2039A000D0870100E88A0100488701008C890100A4890100C8370020F88A01000C8B0100EE
:2039C000208B01002C8B0100588B0100808B0100C00700200889010028890100408901009E
:2039E00064890100888B0100BC8B0100D8870100F8B540F2F5360446B0F8A8011546B0422B
:203A00001F466ED020D940F2FF33984247D040F2014398424FD040F2FA33984252D1D4F81E
:203A200058311A6820460021FFF7BCF901284ED9D4F858310433C4F858311A685AB340F267
:203A4000FA32A4F8A821ECE740F2ED33984205D0B0F57C7F3DD0A8BBA4F8A8310A462046C6
:203A60000021FFF79FF9012831D9254AC4F8582113688BB34FF47C73A4F8A8311268204680
:203A80000021FFF78FF9012821D9D4F858210432C4F85821ECE740F2FF33A4F8A8312B4697
:203AA00020460021174AFFF77DF901280FD940F20143A4F8A83120460121134AFFF772F970
:203AC000012804D90023A4F8A8310320F8BD0020F8BDD4F85821D1E75FB140F2F533A4F898
:203AE000A8313B4620460021084AFFF75BF90128EDD9069B002BCED0069BC4F858319CE787
:203B000098070020EC8B0100008C0100DC8B010040F25E2210B5B0F8A83184B0934204462E
:203B200000F098811CD940F27E22934200F0078236D840F26922934200F0BF8140F20781DD
:203B4000B3F51D7F00F0D88140F27182B3F51E7F00F0DF8140F27A22934200F0E5814FE2F4
:203B600040F23D22934200F06D8231D940F24B22934200F0D180B3F5137FC0F0068140F29E
:203B80005222934200F0408140F22E8140F25722934200F04581B3F5177F00F04D812FE207
:203BA000B3F5227F00F0F98140F2E08040F28D22934200F0088240F2408240F28F229342E4
:203BC00000F00C8240F29122934200F0128217E2B3F50C7F27D000F21C8240F22722934226
:203BE00008D040F22B218B4211D0002B40F00882A0F8A8216B4B204699686B4AFFF75AF960
:203C0000012840F2038240F22B23A4F8A83120460021664AFFF7C6F8012840F2F7814FF4CE
:203C20000C73A4F8A8315F4B20465B680021604AFFF7B8F8012840F2E98140F23223A4F864
:203C4000A831204600215B4AFFF7ACF8012840F2DD814FF40D73A4F8A83120460021564AAD
:203C6000FFF7A0F8012840F2D18140F23623A4F8A83120460021514AFFF794F8012840F20A
:203C8000C581FDF717FCC4F85C01002800F0DD8140F23D23A4F8A831C168494A494B20468B
:203CA0008DE80E000021484A484BFFF77BF8012840F2AC814FF41073A4F8A8312046002188
:203CC000434AFFF76FF8012840F2A0814FF41173A4F8A831D4F85C313E49587F3E4A5B693F
:203CE000002818BF0A462046009200213B4AFFF759F8012840F28A8140F24623A4F8A8311A
:203D000020460021364AFFF74DF8012840F27E8140F24B23A4F8A831D4F85C312E49587F4B
:203D20002C4A5B69002818BF0A46254900920191204600212B4AFFF735F8012840F2668107
:203D4000D4F85C311B681846C4F85C319DE740F26222934200F0968040F26622934200F04C
:203D60009D80B3F5187F40F04B817FE0B3F5217F00F0FD8040F28622934200F0038140F282
:203D80008222934240F03C81E4E0B3F5117FA1D040F246229342B3D0B3F5107F40F0308146
:203DA0008CE700BF5C0700206C070020208C01000889010028890100408901006489010012
:203DC000D087010020870100348C010048870100408C0100148C010010860100608C010060
:203DE000788C0100988C0100B3F5147F40F0088120460021974AFEF7D5FF012840F2068192
:203E000040F25223A4F8A83120460021924AFEF7C9FF012840F2FA8040F25723A4F8A83170
:203E2000204600218D4AFEF7BDFF012840F2EE804FF41773A4F8A831894B20465B6800214A
:203E4000884AFEF7AFFF012840F2E08040F25E23A4F8A83120460021834AFEF7A3FF0128F6
:203E600040F2D4804FF41873A4F8A831204600217E4AFEF797FF012840F2C88040F2622345
:203E8000A4F8A83120460021794AFEF78BFF012840F2BC8040F26623A4F8A831754B2046F7
:203EA00000930021744A754BFEF77CFF012840F2AD8040F26923A4F8A83120460021704A64
:203EC000704BFEF76FFF012840F2A08040F26E23A4F8A8316C4B2046DB680021002BB8BFEE
:203EE0007F33DB11694AFEF75DFF012840F28E804FF41D73A4F8A83120460021644A5D4B92
:203F0000FEF750FF012840F281804FF41E73A4F8A831204600214F4AFEF744FF012875D9E9
:203F200040F27A23A4F8A831204600214A4AFEF739FF01286AD940F27E23A4F8A8312046DB
:203F40000021544AFEF72EFF01285FD940F28223A4F8A831424B20465B680021414AFEF77C
:203F600021FF012852D94FF42173A4F8A831204600213D4AFEF716FF012847D940F2862345
:203F8000A4F8A83120460021384AFEF70BFF01283CD94FF42273A4F8A83120460021344A14
:203FA000FEF700FF012831D940F28B23A4F8A83120460021384AFEF7F5FE012826D940F23A
:203FC0008D23A4F8A83120460021344AFEF7EAFE01281BD940F28F23A4F8A83120460021DD
:203FE0001D4AFEF7DFFE012810D940F29123A4F8A831204601212A4AFEF7D4FE012805D951
:2040000000230320A4F8A83104B010BD002004B010BDB3F50D7F3FF420AE40F2362293422F
:204020003FF427AE40F232229342E9D109E640F26E2293423FF44EAFE2E740F28B22934230
:20404000B6D0DDE7D0F85C0126E64FF41473A4F8A831CDE6588B0100808B0100B48C0100C2
:204060005C07002008890100288901004089010064890100D0870100CC8C01004887010040
:20408000988A01002087010018370020B08A0100E08C01000C8D0100208D0100508D010018
:2040A000D887010040F2F11270B5B0F8A83192B09342044608BF02AD00F01B81B3F5F97F42
:2040C0001CD2B3F5EA7F08BF02AD00F0BD8130D9B3F5F17F00F06E8240F2A48040F2E912B9
:2040E000934200F0DA8040F2ED12934200F0E88040F2E512934240F08981C2E0B3F5037F3F
:2041000000F05A827BD940F21522934200F04D8140F23881B3F5067F00F0668140F21A2226
:20412000934200F06C8140F21722934240F06E814CE140F2C712934218D0B3F5E47F80F0FE
:204140009581002B00F0168240F2C312934240F05D81CB4B204699680022FEF7ABFE012846
:2041600040F2658140F2C713A4F8A83120460021C44AFEF717FE012840F25981C24B186845
:204180000FF068FE0346C4F86801002B00F0D0814FF4E673A4F8A83120460021BB4AFEF74E
:2041A00001FE012840F2438102AD00214022284613F0A0FD28464021D4F86821FDF728F968
:2041C0004FF4E873A4F8A83120460021B04A2B46FEF7E8FD012840F22A8128460021402209
:2041E00013F088FDD4F868315B7C042B00F22881DFE813F0D801D2012001C501CC0140F2D5
:20420000FD12934200F0AD80B3F5FF7F80F05C81B3F5FA7F7AD040F2F912934240F0F68007
:2042200002AD92E0B3F5EC7F00F0868140F2DD12934240F0EB8020460021964AFEF7B2FDB7
:20424000012840F2F48002AD00214022284613F051FD0BF037F8402102462846FDF7D8F899
:204260004FF4F173A4F8A8312B4620460021884AFEF798FD012840F2DA8040F2E513A4F853
:20428000A83120460021844AFEF78CFD012840F2CE8040F2E913A4F8A831204600217F4AD6
:2042A000FEF780FD012840F2C2800AF03FFEC4F86401002800F0B08040F2ED13A4F8A831A8
:2042C00020460021714AFEF76DFD012840F2AF8002AD00214022284613F00CFDD4F86421B6
:2042E000284608324021FDF793F840F2F113A4F8A8312B4620460021654AFEF753FD012876
:2043000040F295804FF4FA73A4F8A831D4F86431204693F824300021614AFEF743FD012861
:2043200040F2858002AD00214022284613F0E2FCD4F864010AF0ECFD402102462846FDF7A6
:2043400067F840F2F913A4F8A8312B46204600214F4AFEF727FD012869D940F2FD13A4F858
:20436000A831D4F8643120469B6900214D4AFEF719FD01285BD9D4F864010AF0DDFDC4F8B8
:20438000640196E7B3F5047F00F0E78040F2132293423BD120460021434AFEF703FD01283F
:2043A00045D940F21523A4F8A831404E2046358800210135ADB22B463D4A3580FEF7F2FC09
:2043C000012834D940F21723A4F8A83104F0BEFD00210346374A2046FEF7E4FC012826D9C9
:2043E0004FF40673A4F8A83120460021324AFEF7D9FC01281BD940F21A23A4F8A831204658
:2044000001212E4AFEF7CEFC012810D900230320A4F8A83112B070BD40F20123A4F8A831BC
:20442000204600211C4AFEF7BDFC01287BD8002012B070BD224B93E8030002908DF80C1038
:204440004FF4EA73A4F8A8312B46204600211D4AFEF7A8FC0128EAD90B4BD4F86811186848
:204460000FF0C0FC0346C4F868018EE6B3F5E67F3FF492AEB3F5E87FC8D102ADA4E600BF7F
:20448000B0070020788D0100F0080020108C0100DC8C0100D08D0100C08D0100E88D0100FF
:2044A000FC8D0100088E0100388E0100C2360020408E0100548E0100F4880100D88701006D
:2044C000A48D0100348E010040F201229342A7D040F20522934299D120460021384AFEF7B0
:2044E00061FC0128A3D9FCF7E5FFC4F85C0180B34FF40373A4F8A831427FC368002A57D02C
:2045000000F11F02009282690021019220462D4AFEF748FC01288AD9D4F85C311B6818467C
:20452000C4F85C31E3E740F20523A4F8A831D3E74FF4EC73A4F8A83120460021224AFEF7E0
:2045400031FC01287FF673AF40F2DD13A4F8A83171E64FF40473A4F8A831204600211A4A66
:20456000FEF720FC01287FF662AF40F21323A4F8A8310FE740F2C313A0F8A831E9E5134B03
:2045800093E8030002908DF80C1059E72B46104A07CA03C31A7053E72B460E4A07CA03C3A4
:2045A0001A704DE72B460C4A07CA03C31A8047E70A4AA7E702AD57E6D0F85C019CE700BFE2
:2045C000188E01002C8E0100C08D0100AC8D0100B48D0100988D01008C8D0100748D01006D
:2045E00038B5B0F8303104460D469BB140F2E13293420AD1284613F0CBFB2946024604F500
:2046000098700BF0CBF9012809D90023A4F83031032038BD40F2E133A0F83031EAE7002060
:2046200038BD00BF40F22642F0B5B0F8A63183B09342044600F024811AD940F236429342AF
:2046400000F0D4802FD840F22C42934242D040F22D4293424CD040F22742934254D12046FB
:204660009449FFF7BDFF012848D8002003B0F0BD40F21A42934200F0EF8040F2D680B3F5F0
:20468000846F00F0908040F22142934200F09A8040F21B42934237D120468749FFF7A0FF7C
:2046A00001282BD8E1E740F23F42934261D0B3F5886F6DD0B3F5876F26D1A6E0042B00F037
:2046C000C980052B6BD0022B00F0D68040F22C43A0F8A631794B204600937949794A00233E
:2046E000FFF786F90128C0D940F22D43A4F8A63120467549FFF774FF0128B6D9734A10213B
:2047000000231170C4F86C3100230320A4F8A63103B0F0BD90F8AD11C0F86C310229A0F825
:20472000A831A0F8AA3100F0BB800129E6D1684807F056FB04F27D17054630B949E02846D4
:2047400007F0B4FB0546002843D06E68304613F01FFB31460246384613F072FB0028EED130
:20476000EB68C4F86C31002B36D040F23F43A4F8A631524B204600935649574A0023FFF746
:2047800037F901287FF671AF4FF48863A4F8A631D4F86C31204698470128AFD865E74FF49D
:2047A0008463A0F8A631454B204600934B49454A0023FFF71DF901287FF657AF40F221438E
:2047C000A4F8A63120464649FFF70AFF012895D84BE70023C4F86C3104F5BE70414910224B
:2047E00013F078FB40F23643A4F8A631334B204600933D49384A0023FFF7FAF801287FF6FD
:2048000034AF4FF48763A4F8A63120463749FFF7E7FE01287FF629AF2C4A102100230220F2
:204820001170A4F8A63103B0F0BD002B3FF472AF40F2154293427FF467AF002300932046A2
:204840002B49204A04F5BE73FFF7D2F801283FF655AF0AE7A0F8A621184B20460093254914
:20486000184A0023FFF7C4F801287FF6FEAE40F21B43A4F8A6310FE740F22643A0F8A631B4
:204880000E4B204600931C490E4A0023FFF7B0F801287FF6EAAE40F22743A4F8A631DEE63F
:2048A00090F8AE31002B7FF409AF40F21543A0F8A631C2E7A48E01006C8E010054070020F0
:2048C0007487010034880100BC8E01008C3C002048160020E8870100AC87010060880100E1
:2048E000888E0100CC8E010090870100DC8E01006890010040880100FC87010040F25F42AA
:204900002DE9F04FB0F80C3187B09342044600F07C81B3F58C6F26D340F27F42934200F0C6
:204920007181B3F5906FC0F03A8140F2994293425CD040F2BC4293421ED100F586794846EF
:204940000A210BF083F8012809D940F2BC434846A4F80C310A210BF079F80128F5D8002066
:2049600007B0BDE8F08F40F24D4293420DD040F251418B4237D033B100230320A4F80C314E
:2049800007B0BDE8F08FA0F80C2104F58679484620210BF05BF80128E1D904F5C6752846DD
:2049A000B549042213F022FA002840F0D38140F251420123A4F80C2184F8AD31484620212D
:2049C0000BF044F80128CAD994F88C312F2B00F0F181AA4A1021002302201170A4F80C310B
:2049E00007B0BDE8F08F00F58679E7E7D0F870B100F586791FFA8BF148460BF085F8012879
:204A0000ADD948460BF01CF8D4F8703104F5C675181AC4F8700148460BF012F8D4F870B1F3
:204A20000646002800F00C82A846DFF86CA28DE81008DAF800200027531C042B2DD8DFE8A1
:204A400003F05803031A60008D4C002140228D4813F050F9002140228B4813F04BF9002150
:204A600040228A4813F046F98949002302220B602360CAF8002098F800303D2B00F05D81E1
:204A8000262B00F0848082490A683E2A7FDC7D4D501CAB54DAF8002008600137BE4208F111
:204AA0000108C9D1009CD4F870B1013224D0794DBBF1000F03DD2B68A34200F0B78194F816
:204AC000AE3133B9744B1B68012B1CBF032384F8AE31724E3378002B40F09A812A686D4918
:204AE00000239442337008BF0B60012384F8AC312BE7009CD4F870B10323664D84F8AE319C
:204B0000D6E798F80030262B00F0A0803D2B00F064815B4C22683E2A00F35F81711E5A4DD8
:204B2000501C8F42AB54206000F0AB810322B4E7039FDDF81080059C029A002302F80B3041
:204B4000524813F025F92060554807F049F9554D2860002800F081814FF0010B02960AE033
:204B6000BBF1010F00F07C81286807F09FF92860002800F071814668444A424826B1444BAF
:204B800019682368B0478346BBF1FF3FE8D1009C4FF0FF33CAF80030D4F870B1ACE740F2F5
:204BA000694293427FF4E8AE00F5867948460A210AF04CFF01287FF6D2AE00220423C4F857
:204BC000702184F8AE3105E048460AF039FF022800F0D08048460AF033FF0023204480F821
:204BE0008C3148460AF02CFF0E2800F2D08040F27F43A4F80C3148460A210AF027FF0128FE
:204C0000E2D8ACE600F58679F5E700F58679484620210AF01BFF01287FF6A1AE94F88C316B
:204C20002F2B7FF4D6AE48460AF00AFF0023204480F88B3104F5C67104F5BE70102213F04B
:204C400049F940F26943A4F80C31AFE70C4CD4F800C0BCF1000F00F01081134A0B4B126877
:204C60004FF0000B02939E4605945B460397CDF8108014462CE000BF888801008C3C00202A
:204C8000001600203C1A0020081600207C1A0020381A002004160020FC150020DC36002065
:204CA000341A002050160020500A00202B2A00F09980591C0B468EF800209C450BF1010BD3
:204CC0007FF636AFBBF13F0F0EF1010E3FF430AF6E4AD25C252AE9D16C48591C405C25186F
:204CE0006D7815F0440FE5D0684F1F44BF7804EB070898F8018018F0440FDBD005F003055F
:204D0000012D08BF2030221808F003085278B8F1010F08BF2037550740F19A80000100F0D8
:204D2000F002E1194978033349074CBF303F573FF9B20A438EF80020BFE701370323BE428E
:204D400008F10108CAF800307FF4DBAE009CD4F870B1ACE628464E49052213F047F80028B2
:204D60007FF437AE40F25F420223A4F80C2184F8AD314CE7D4F870B1BBF5807F38DD0022BA
:204D80000523C4F8702184F8AE31424D97E604F5C67041490F2213F029F8054600287FF443
:204DA00026AF04F29B1012F08FFE84F8AE51C4F870011CE794F88D31202B30D048460AF026
:204DC0003FFE0023204480F88B3104F5C67104F5BE70102213F07EF887E64FF0FF32CAF83A
:204DE00000205AE64FF0200201338EF8002064E794F8AE31274D33B92B6823B39C4218BFE4
:204E000084F8AE0120D0BBF1000F3FF754AE60E6224B00201978024606F0D0FE5EE604F5D7
:204E2000BE701F49102213F055F85EE694F8AE31002B7FF44EAE40F29943A4F80C31D9E56C
:204E4000184B1A6831E62C60164B00221A602FE657380201D2B264E7029EDAF800201CE6C3
:204E6000029E114A0137BE42CAF800B008F1010882F800B07FF4E9AD68E70C4BE3460293F4
:204E80005AE6019B002B7FF451AEE0E6081600204087010004160020388F01001643002052
:204EA00034870100FC150020DC3600207C1A00202DE9F0410388044683B1154640F20C52E2
:204EC000934206D1474B1B788B4227D00120BDE8F081002303800320BDE8F081424804F0A9
:204EE00079F906F0E9FD414B18704FF4A0400AF0D9FE3F4806F0DEFF3E483F4906F072FF8D
:204F00003C483E4906F06EFF3A483D4906F06AFF40F20C5323800120BDE8F081394E33781F
:204F200013F0300726D11A0624D403F0400202F0FF087ABB002D52D01B0705F5827026D56D
:204F400006F0D4FE58B14146202328464FF4D872337012F0CFFE2648294606F0DBFF28462E
:204F6000FFF7CCFC95F8AC31012BD1D12846FFF759FBCDE7002DCBD0284600214FF4D872EB
:204F800012F0B8FE29461A4806F0C4FFC0E706F0A7FEE4E7164806F09FFF0546F8B11A4B77
:204FA000014605F5C67618680AF096FE314605F5867019220AF022FE314605F598701922F6
:204FC0000AF01CFEA5F8A671C5F86C7185F8AC7105F582704FF4A06106F074FEBFE7202354
:204FE000337095E71A430020488F010016430020A407002048160020B00700205C07002021
:20500000C00700208C3C00209C3C00200146014806F0E8BE341A002010B50446436E984790
:20502000034BE06E19780022BDE8104006F0C6BD17430020F0B5044600250623012785B09F
:2050400080F86030A0F86870A0F89C5280F8385029464FF4067200F5956012F04BFEDFF81C
:2050600048C0DFF848E004F22C7604F174024FF4007384F8B67484F8745221460092304619
:2050800004F2A622CDF808C0CDF80CE001930BF06FF93046B4F8282704F5E36105B0BDE815
:2050A000F0400BF09DB900BFB55100005955000070B5044600F174030025036729462422E1
:2050C00004F22C7680F86A5000F51E7012F012FE30460BF0E7F930460BF0F2F930462946DF
:2050E000342212F007FE042384F8603070BD00BF026F00F174018A4207D0002380F8743279
:20510000521A00F22C700BF0AFB9012380F87432704700BFF8B505461646D0F8A022006F2D
:2051200005F51D731C1AB71ABC4228BF3C46A4B21144224612F004FD2A6FD5F8A0322244C3
:205140001C44A6422A67C5F8A04206D02846FFF7CFFFD5F8A002301AF8BD0020C5F8A002E2
:20516000F8BD00BF10B5044638B1016021B1084612F00EFEA08010BD818010BD10B504466A
:20518000042100F5D862FFF747FF94F80E37B4F81217012B04BF002384F80E3741B904F513
:2051A00095604FF4067212F0A5FD012384F8B63410BD00BF002B00F00C812DE9F04F9A46A8
:2051C00091F8B03485B016460D46002B40F0138195F8B134002B73D095F8B7344FF00009EF
:2051E000002B7ED0B5F8B214D5F8AC2495F8B134B1F5007F23F00F0300F2ED8001318A420D
:205200004FF001074FF0000832D2302B00F0938095F8B904C9EB0A04C0F500739C4228BFA5
:205220001C462844224606EB090100F2BA4012F087FCD5F8AC2495F8B93422442344A14403
:20524000C5F8AC2485F8B93424B100200130C0B28442FBD8B5F8B214D14501F1010101D3D5
:205260008A4264D395F8B1348A4223F00F03CCD3DBB2502B00F02E8100F2D780302B00F0EE
:205280001881402B00F00381202B40F0AD8095F8BB44002C40F03381E98A012385F8993273
:2052A00005F118002B46C9019A4A06F0FDF9092385F86030284621462246FFF7ADFE93E04B
:2052C000D5F8AC3432780133BAF1010FC5F8AC3485F8B1242BD095F8B7344FF00109002BB2
:2052E00080D106EB09071EE0D5F8AC2495F8B80417F8014B01320130052AC5F8AC2404F009
:205300007F0185F8B80400F2868095F8B634B5F8B2E4D80101FB03E1230689B2A5F8B214A2
:2053200085F8B6047DD5D14509F10109DCD3002005B0BDE8F08F95F8BF36002B7FF468AFEB
:2053400095F8BE36B3B916F8093009F10101501C1B025145A5F8BA36C5F8AC047ED2715CE7
:2053600002320B43A5F8BA36C5F8AC2409F1020985F8BE76B5F8BE46012C7FF449AFB5F8E5
:20538000BC16B5F8BA36C9EB0A025B1A934228BF134668181FFA83FB06EB09015A4600F2B0
:2053A000C460019312F0CCFBB5F8BC26019BD5F8AC141A44B5F8BA0692B259449042D94419
:2053C000C5F8AC14A5F8BC2600F08A8085F80E771EE700207047302B3FF410AF52440131E4
:2053E0008A42C5F8AC24A2D30123002085F8B03405B0BDE8F08F01F595604FF4067200219A
:2054000012F078FC012385F8B63495F8B134002B7FF4E2AE54E7284680210022FFF7FCFD90
:2054200085E7012385F8B734E0E6702B52D04FD9902B15D0B02BD7D195F8BA1495F8BB34CF
:20544000012243EA012385F89922A5F8B4342846032105F2B442FFF7DFFDC5E78946D7E692
:2054600095F8BA1495F8BB34012243EA012395F8BC4485F89922A5F8B4342846022103AA59
:20548000ADF80C308DF80E40FFF7C6FDACE795F8BA1495F8BB34012243EA012385F8992289
:2054A000A5F8B4342846052105F2B442FFF7B4FD9AE795F8B91405F2BA420023A5F80C178E
:2054C000C5F80827A5F812372846FFF757FE8BE7602B89D1284684210022FFF79DFD83E7BB
:2054E0002B1885F8BF4683F8C486B5F8B234023B1B1A9BB2A5F81037A5F8123766E728464B
:20550000822105F2BB42FFF787FD2846FFF7D0FD6AE700BF1955000090F838302BB90C4BA0
:20552000024619780B4806F049BB10B5022300F22C7480F8603020460AF0B4FF20460AF04E
:20554000BFFF2046BDE810400021342212F0D2BBDD360020D007002010B582B00C468DF834
:205560000720042A11D8DFE802F02F1212120300B1F84E372BB9012201F1740381F874221F
:205580000B6704F1180006F0B7F802B010BD154B22461978144806F011FB042384F860307E
:2055A00004F1180006F0C4F8204601210DF10702FFF732FD2046FFF77BFD637D012BE4D1E3
:2055C0002046FFF737FDE0E708490123072284F86020097884F874322246034806F0EEFAA6
:2055E00002B010BDE5360020D0070020E036002008B506F061FA1A4A1A4B1070187006F0EF
:205600005BFA194B187006F057FA184B187006F053FA174B187006F04FFA164B187006F0CC
:205620004BFA154B187006F047FA144B187006F043FA134B187006F03FFA124A124B10709E
:20564000187006F039FA114B1870114806F0C4FB1048002106F0DEFA0F4B01221A7008BD94
:20566000E8360020DE360020E0360020E4360020E6360020E7360020E1360020DD36002065
:2056800017430020E5360020DF360020E2360020C01A0020D0070020E33600202DE9F04F69
:2056A000044640F2AE40238883B083428DF80710154600F0EE802CD940F2CD418B4200F086
:2056C000C98074D940F2DA418B4251D040F2E7418B4228D17E4B9DF807101B788B4200F014
:2056E0004D857C4B1B788B4209D87B4B1B788B4205D37A4B186806F061FA9DF80710784BCD
:205700001B788B4200F0878140F2E743012023800CE040F289418B426BD0B3F5946F08D09E
:20572000002B00F0908000232380032003B0BDE8F08F674B9DF807101B788B4200F00E853D
:20574000644B1B788B4209D8634B1B788B4205D3624B186806F032FA9DF80710604B1B783A
:205760008B4200F0CD804FF4946323800120DDE7574B9DF807101B788B4200F0AF84554BEC
:205780001B788B4209D8544B1B788B4205D3534B186806F013FA9DF80710514B1B788B4228
:2057A00000F0288240F2DA4301202380BEE7B3F5986FB8D1464B9DF807101B788B4200F0D2
:2057C000AD84444B1B788B4209D8434B1B788B4205D3424B186806F0F1F99DF80710404BDE
:2057E0001B788B4200F074814FF49863238001209CE7374B9DF807101B788B4200F062847B
:20580000384B1B788B4200F05484374B1B788B4200F0EB83354E33788B4200F0F683344BBA
:205820001B788B4200F00284324B1B788B4200F00E84314B1B788B4200F01A842F4B1B78BC
:205840008B4200F0268440F289430120238003B0BDE8F08F1E4B9DF807101B788B4200F0E3
:205860004D841C4B1B788B4209D81B4B1B788B4205D31A4B186806F0A1F99DF80710184B8D
:205880001B788B4200F0588140F2CD43012023804CE70F4B9DF807101B788B4200F04E847E
:2058A0000C4B1B788B4209D80B4B1B788B4205D30A4B186806F082F99DF80710084B1B78EA
:2058C0008B4200F0098240F2AE43012023802DE7E5360020DE360020DF3600204C20002055
:2058E000E2360020E8360020E0360020E4360020DD360020E6360020E7360020E1360020DF
:20590000B94E3768B7F89C324FF0000840F2A712934200F0AE86B3F5D47F80F03F8440F2D9
:205920009F12934200F0DA84B3F5D07FC0F07B84B3F5D17F00F0CB8640F23586B3F5D27FCE
:2059400000F0B586C0F0A38640F2A512934240F03A8497F87432002B48D03B6F07F51D72EA
:205960009342397C01F07C8119703B6FC7F8A08201333B673846F9683A8AFFF7CBFB00283E
:2059800040F073863B7D5A0700F11A8297F91430002BC0F2E2813B7D5B0641F145813B6F69
:2059A00007F51D72934200F09B8683F800803B6F01333B67934297F85C1001F0A58119708B
:2059C0003B6FC7F8A08201333B673846B96DB7F85C20FFF79FFB002801F0268140F2C3133F
:2059E000A7F89C3297F87432002BEED133687E4F93F86030032B01F0C5807C4A7C4B10682F
:205A00001978002206F0DAF800283FF4ACAE3F68B7F89C327AE7744E356895F86030DFF87E
:205A2000CC810027092B7FF40EAF40F29D22B5F89C32934201F07D8040F2308540F2A22282
:205A4000934201F0868000F2D68540F29F22934201F05F8040F2A122934240F0F08595F899
:205A600074323BB32B6F05F51D72934201F09E801F702B6F01332B67934295F8861201F0B1
:205A8000618019702B6F01332B67C5F8A0722846D5F89012B5F89422FFF73CFB834600280F
:205AA00001F0F88040F2A723A5F89C3295F87432002BECD14E4BD8F800001978002206F0E9
:205AC0007DF800283FF420AE356895F86030A9E7454E376897F8603040F2D728DFF80CA1D8
:205AE000DFF80C91092B41F05580B7F89C32434500F0F481B3F5367FC0F0CB8400F01385AA
:205B000040F2E322934211D197F8B034002B00F011854FF4067207F59560002112F0EAF8C2
:205B20000122002387F8B62487F8383000239DF80710A7F89C3277E62B4E376897F860300F
:205B400040F21B28DFF8A4A0DFF8A490092B40F04982B7F89C32434500F02487B3F5077FAD
:205B6000C0F06184B3F5087F2BD000F2378540F21D22934200F0C08740F21E22934240F0C4
:205B80002E8297F8743203B33B6F07F51D72934297F88C1201F0758019703B6F00220133C4
:205BA0003B67C7F8A0223846D7F88812B7F88C22FFF7B0FA002800F0D5814FF40873A7F813
:205BC0009C3297F87432002BEDD1DAF8000099F80010002205F0F2FF00283FF455AE376861
:205BE00097F86030B2E700BFBC1A00204C200020E2360020D24E376897F8603040F25928E3
:205C0000DFF844A3DFF83C93092B40F00884B7F89C22424500F05F8700F2D383B2F5157FE3
:205C200000F0528640F2078640F256239A4200F0EE85B2F5167F40F0EF8397F87432002BB5
:205C40003CD03B6F07F51D72934200F0E487002119703B6F01333B67934297F8861200F0BD
:205C6000358719703B6F01333B67B7F88C1293424FEA112100F0C78719703B6F01333B678B
:205C8000934297F88C1200F0108719703B6F002201333B67C7F8A0223846D7F88812B7F839
:205CA0008C22FFF737FA002800F0898740F25E23A7F89C3297F87432002BEDD1DAF80000D7
:205CC00099F80010002205F079FF00283FF46AAD376897F8603097E7994ED6F800A09AF8FF
:205CE0006030DFF86482974F4FF00009032B1CD0BAF89C32B3F5F57F00F0C18040F2388355
:205D000040F2EB12934200F03F8340F2F512934240F031839AF87432002B00F03D8353462F
:205D2000D6F800A00022A3F89C225046FFF7C0F9012130680DF10702FFF76EF99DF807106B
:205D40006DE53846FFF7D4F94FF4DC73A7F89C3297F87432002B3FF449AE3B6F07F51D72F2
:205D60009342EED083F800803B6F01333B67934297F8541000F0688419703B6FC7F8A0825D
:205D800001333B673846396DB7F85420FFF7C2F900283FF400AE4FF4DE73A7F89C3297F89C
:205DA0007432002BEED121E63846FFF7A1F940F2A913A7F89C3297F87432002B3FF416AE8C
:205DC0003B6F07F51D729342EED083F800803B6F01333B67934297F8401000F09E8719702E
:205DE0003B6FC7F8A08201333B673846F96BB7F84020FFF78FF9A0B14FF4D673A7F89C3289
:205E000097F87432002BF0D1F0E53846FFF770F940F2AD13A7F89C3297F87432002B3FF4BD
:205E2000E5AD3B6F07F51D729342EED083F800803B6F01333B67934297F8481000F05E84FF
:205E400019703B6FC7F8A08201333B673846796CB7F84820FFF75EF900283FF497AD4FF4AF
:205E6000D873A7F89C3297F87432002BEED1BDE55046FFF73DF94FF4F573AAF89C329AF83A
:205E80007432002B00F08F82DAF870300AF51D729342EDD0E0211970DAF870300133CAF8AC
:205EA0007030934200F0698283F80090DAF8703050460133CAF87030FFF71AF90AF10400E1
:205EC0004FF4807105F0FEFE40F2F513AAF89C3220E73846FFF70CF9A7F89C8297F8743281
:205EE000002B00F02D833B6F07F51D729342F0D0C02119703B6F01333B67934200F00C83CF
:205F0000002119703B6F384601333B674FF0010B0091FFF7EDF800994FF4067287F838B067
:205F200007F5956011F0E6FE87F8B6B4381D4FF4A06105F0C7FE40F2E323A7F89C32E3E5E2
:205F4000BC1A0020E23600204C2000203846FFF7CFF840F22123A7F89C3297F87432002B09
:205F60003FF433AE3A6F07F51D739A4297F89812ECD011703B6F384601333B6707F1040B81
:205F8000FFF7B6F858464FF4A06105F09BFE4FF4067207F59560002111F0ACFE40F22A22F7
:205FA0000123A7F89C2287F8B63497F89932012B05D0584605F09AFE00283FF406AE5846C4
:205FC00005F094FE4FF4067207F59560002111F091FE0122002387F8B62487F86A30002302
:205FE000A7F89C329DF8071023E495F87432BE4EB5F8A422012B3560A5F854277FF40AACCD
:206000000023A5F89C322F467EE495F86030B64E0A2B35607FF403AC95F87422012A40F090
:20602000DA800022A5F89C22AA465AE695F87432AD4E012B35607FF4F7AB95F86030092B04
:206040007FF4F2AB0022A5F89C222F4644E595F87432A54E012B35607FF4EBAB95F8603008
:20606000092B7FF4E6AB0022A5F89C222F4667E595F874329C4E012B35607FF4DFAB95F842
:206080006030092B7FF4DAAB0022A5F89C222F46B4E595F87432944E012B35607FF4D3ABF2
:2060A00095F86030092B7FF4CEAB0022A5F89C22B5E48D4B28461D60FEF7BCFF9DF807106E
:2060C000FFF7A3BB884B032285F8602028461D60FEF7EEFF9DF80710FFF792BB824B834823
:2060E0001B680327002683F86070A3F89C62006805F064FD9DF80710FFF74FBB7A4B7B48F7
:206100001B680327002683F86070A3F89C62006805F054FD9DF80710FFF7B1BB724B734894
:206120001B680327002683F86070A3F89C62006805F044FD9DF80710FFF751BB6A4B6B48F4
:206140001B680327002683F86070A3F89C62006805F034FD9DF80710FFF7B0BB624B634895
:206160001B680327002683F86070A3F89C62006805F024FD9DF80710FFF7F0BA5A4B5B4856
:206180001B680326002583F86060A3F89C52006805F014FD9DF80710FFF7B1BAB3F5DC7FEC
:2061A0003FF4D6AD1FD8B3F5D67F3FF429AE40F2D681B3F5D77F00F0A882FFF42DAEB3F514
:2061C000D87F3FF450AE4A4E0023A7F89C329DF80710FFF720BB47482A4605F0EFFC9DF81E
:2061E0000710FFF71CBB40F2BF12934200F07F82B3F5E07FC0F0E98140F2C31293423FF4C2
:20620000F1AB40F2CF12934200F08982B3F5E07FD9D197F87432002B3FF4E8AB3B6F07F582
:206220001D72FFF7C7BBB3F5CE7F27D000F2A981002B00F0928240F299129342C3D197F84B
:206240007432002B3FF4D2AB3A6F07F51D739A4297F8781200F04F8511703B6FC7F8A082C3
:2062600001333B67384607F5207197F88422FEF751FFA8B14FF4CE73A7F89C3297F8743244
:20628000002BEFD1FFF7B2BB3846FEF731FF40F29D13A7F89C3297F87432002B3FF4A6ABDA
:2062A0003B6F07F51D729342EED083F800803B6F01333B67934200F0DC8406221A703B6F1A
:2062C000C7F8A08201333B6738460B490622FEF721FFF8B140F29F13A7F89C3297F87432C9
:2062E000002BF1D1FFF782BBBC1A00204C200020E4360020D0070020809001003846FEF747
:20630000F7FE4FF4D073A7F89C3297F87432002B3FF46CAB3B6F07F51D729342EED00321FF
:2063200019703B6F01333B679342397D00F0638419703B6F01333B67F98A93424FEA112126
:2063400000F0BE8119703B6F01333B679342B97D00F0968119703B6F01333B67934200F025
:206360009F8183F800803B6F01333B67FFF7F8BA002B3FF489AD5346D4E45046FEF7B8FEB4
:2063800040F2EB13AAF89C329AF874325BB1DAF870300AF51D7284E50AF1040005F0A6FC1A
:2063A00000287FF4BCACD8F800003978002205F005FC00283FF487AAD6F800A09AF8603025
:2063C00094E4B2F5177F00F0778340F2118240F25E239A423FF46EAC40F267239A421BD1F9
:2063E00007F1040B97F89932012B05D0584605F07DFC00283FF462AC584605F077FC4FF47D
:20640000067207F59560002111F074FC0122002387F8B62487F86A300023A7F89C329DF8A4
:206420000710FFF70BBA40F21522934200F0AF8240F25082B3F5067F00F09C8240F21A227E
:2064400093427FF4CCAD97F87432002B3FF4BDAB3B6F07F51D72934200F0A08300211970B9
:206460003B6F01333B67934297F8861200F0958219703B6F01333B67B7F88C1293424FEA35
:20648000112100F0328319703B6F01333B67FFF77EBB002B3FF427ADFFF748BBB3F5267F75
:2064A00000F0FD8240F29B8240F29A22934200F08282B3F5277F40F0C28095F87432002B49
:2064C0003FF4F8AA296FB5F88C3205F51D7291424FEA132300F006840B702B6F01332B67C4
:2064E000934295F88C1200F01D8319702B6FC5F8A07201332B672846D5F88812B5F88C2224
:20650000FEF708FE002840F0008395F89832002B7FF4A8AAFFF7B9BA3846FEF7E9FD4FF459
:206520003673A7F89C3297F874324BB13B6F07F51D72E2E4381D05F0D9FB00287FF4E9AACD
:20654000DAF8000099F80010002205F037FB00283FF44AA9376897F86030FFF7C3BA40F2CE
:20656000A91293423FF427ACB3F5D57F7FF42BAE97F87432002B3FF439AA3B6F07F51D7292
:2065800028E440F29D1293423FF485AEB3F5CF7F7FF419AE97F87432002B3FF427AA3B6F95
:2065A00007F51D7286E6B3F5D07F3FF4AEAE40F2A11293427FF407AE97F87432002B3FF4E9
:2065C00015AA3B6F07F51D72AEE640F2B912934241D0B3F5DE7F3FF4E2ABF4E540F221223D
:2065E00093423FF4BAAC40F22A2293427FF4F7AC07F1040BD9E440F2A72293423FF456AAFD
:20660000B3F52E7F1BD105F1040995F89932012B05D0484605F06AFB00283FF44BAA484617
:2066200005F064FB4FF4067205F59560002111F061FB0122002385F8B62485F86A30002307
:20664000A5F89C32FFF7FFB83846FEF751FD40F2B913A7F89C3297F87432002B3FF4C6A9F4
:206660003B6F07F51D72FFF782BB40F2A713A7F89C3297F87432002B7FF47CA9FFF7B6B9FC
:206680003846FEF735FD40F2A313A7F89C3297F87432002B3FF4AAA93B6F07F51D7255E6AA
:2066A0003846FEF725FD4FF4D273A7F89C3297F87432002B3FF49AA93B6F07F51D724DE612
:2066C0003846FEF715FD4FF4D173A7F89C3297F87432002B3FF48AA93B6F07F51D722BE635
:2066E0003846FEF705FD40F2BF13A7F89C3297F87432002B7FF453A9FFF778B93846FEF74B
:20670000F7FC4FF4D773A7F89C3297F87432002B3FF46CA93B6F07F51D72FFF78CBB07F17A
:20672000040997F89932012B05D0484605F0DEFA00283FF45BA9484605F0D8FA002840F08A
:206740001282D24E07F5956000214FF4067211F0D1FA012387F8B63436E53A8A102187F8D0
:20676000781202B1931CB7F8542003F10C0102B10232B7F85C301144002B00F0D1819A1C6F
:20678000B7F84030114403B10233B7F848200B4402B102321344C7F87C3287F8848207F50A
:2067A000207E002203F07F01DB0961F07F0013D00EF8020097F884220132D2B2042A87F86E
:2067C0008422EFD9384681210022FEF725FC0023A7F89C32AD4EFAE40EF8021097F884322D
:2067E0000133DBB2042B87F884327FF62DADE9E740F25B239A427FF40FAE97F87432002B39
:206800003FF45CAA3B6F07F51D72FFF72EBA97F87432002B3FF452AA384607F5207197F803
:206820008422FEF777FC00283FF40BAA40F25623A7F89C32EBE7002A7FF4EEAD1146B7F812
:206840008C32A220043387F88422C7F87C3287F8780207F5207E03F07F02DB0962F07F0033
:2068600012D00EF8010097F884120131C9B2042987F88412EFD9384681210022FEF7CCFB55
:206880000023A7F89C32CAE50EF8012097F884320133DBB2042B87F88432ECD83A6F07F5BF
:2068A0001D739A4297F8781207D011703B6F002201333B67C7F8A022AEE73846FEF718FCBC
:2068C0004FF41573A7F89C3297F87432002BE5D1FFF7F4B9002B7FF482AB1946B7F88C2240
:2068E0008220053287F88432C7F87C2287F8780207F5207E02F07F03D20963F07F0013D096
:206900000EF8010097F884120131C9B2042987F88412EFD9384681210022FEF77DFB0023C2
